:020000040000fa
:080000000002040000000000f2
:020000040000fa
:0400080004030000ed
:020000040000fa
:04000c0004030000e9
:020000040000fa
:0400100004030000e5
:020000040000fa
:0400140004030000e1
:020000040000fa
:0400180004030000dd
:020000040000fa
:04001c0004030000d9
:020000040000fa
:0400200004030000d5
:020000040000fa
:0400240004030000d1
:020000040000fa
:0400280004030000cd
:020000040000fa
:04002c0004030000c9
:020000040000fa
:0400300004030000c5
:020000040000fa
:0400340004030000c1
:020000040000fa
:0400380004030000bd
:020000040000fa
:04003c0004030000b9
:020000040000fa
:0400400004030000b5
:020000040000fa
:040044003403000081
:020000040000fa
:0400480004030000ad
:020000040000fa
:04004c0004030000a9
:020000040000fa
:0400500004030000a5
:020000040000fa
:0400540004030000a1
:020000040000fa
:04005800040300009d
:020000040000fa
:04005c000403000099
:020000040000fa
:040060000403000095
:020000040000fa
:040064000403000091
:020000040000fa
:04006800040300008d
:020000040000fa
:04006c000403000089
:020000040000fa
:040070000403000085
:020000040000fa
:040074007203000013
:020000040000fa
:04007800040300007d
:020000040000fa
:04007c000403000079
:020000040000fa
:040080000403000075
:020000040000fa
:040084000403000071
:020000040000fa
:04008800040300006d
:020000040000fa
:04008c000403000069
:020000040000fa
:040090000403000065
:020000040000fa
:040094005003000015
:020000040000fa
:04009800040300005d
:020000040000fa
:04009c000403000059
:020000040000fa
:0400a0000403000055
:020000040000fa
:0400a4000403000051
:020000040000fa
:0400a800040300004d
:020000040000fa
:0400ac000403000049
:020000040000fa
:0400b0000403000045
:020000040000fa
:0400b4000403000041
:020000040000fa
:0400b800040300003d
:020000040000fa
:0400bc000403000039
:020000040000fa
:0400c0000403000035
:020000040000fa
:0400c4000403000031
:020000040000fa
:0400c800040300002d
:020000040000fa
:0400cc000403000029
:020000040000fa
:0400d0000403000025
:020000040000fa
:0400d4000403000021
:020000040000fa
:0400d800040300001d
:020000040000fa
:0400dc000403000019
:020000040000fa
:0400e0000403000015
:020000040000fa
:0400e4000403000011
:020000040000fa
:0400e800040300000d
:020000040000fa
:0400ec000403000009
:020000040000fa
:0400f0000403000005
:020000040000fa
:0400f4000403000001
:020000040000fa
:0400f80004030000fd
:020000040000fa
:0400fc0004030000f9
:020000040000fa
:0401000004030000f4
:020000040000fa
:0401040004030000f0
:020000040000fa
:0401080004030000ec
:020000040000fa
:04010c0004030000e8
:020000040000fa
:0401100004030000e4
:020000040000fa
:0401140004030000e0
:020000040000fa
:0401180004030000dc
:020000040000fa
:04011c0004030000d8
:020000040000fa
:0401200004030000d4
:020000040000fa
:0401240004030000d0
:020000040000fa
:0401280004030000cc
:020000040000fa
:04012c0004030000c8
:020000040000fa
:0401300004030000c4
:020000040000fa
:0401340004030000c0
:020000040000fa
:0401380004030000bc
:020000040000fa
:04013c0004030000b8
:020000040000fa
:0401400004030000b4
:020000040000fa
:0401440004030000b0
:020000040000fa
:0401480004030000ac
:020000040000fa
:04014c0004030000a8
:020000040000fa
:0401500004030000a4
:020000040000fa
:0401540004030000a0
:020000040000fa
:04015800040300009c
:020000040000fa
:04015c000403000098
:020000040000fa
:040160000403000094
:020000040000fa
:040164000403000090
:020000040000fa
:04016800040300008c
:020000040000fa
:04016c000403000088
:020000040000fa
:040170000403000084
:020000040000fa
:040174000403000080
:020000040000fa
:04017800040300007c
:020000040000fa
:04017c000403000078
:020000040000fa
:040180000403000074
:020000040000fa
:040184000403000070
:020000040000fa
:04018800040300006c
:020000040000fa
:04018c000403000068
:020000040000fa
:040190000403000064
:020000040000fa
:040194000403000060
:020000040000fa
:04019800040300005c
:020000040000fa
:04019c000403000058
:020000040000fa
:0401a0000403000054
:020000040000fa
:0401a4000403000050
:020000040000fa
:0401a800040300004c
:020000040000fa
:0401ac000403000048
:020000040000fa
:0401b0000403000044
:020000040000fa
:0401b4000403000040
:020000040000fa
:0401b800040300003c
:020000040000fa
:0401bc000403000038
:020000040000fa
:0401c0000403000034
:020000040000fa
:0401c4000403000030
:020000040000fa
:0401c800040300002c
:020000040000fa
:0401cc000403000028
:020000040000fa
:0401d0000403000024
:020000040000fa
:0401d4000403000020
:020000040000fa
:0401d800040300001c
:020000040000fa
:0401dc000403000018
:020000040000fa
:0401e0000403000014
:020000040000fa
:0401e4000403000010
:020000040000fa
:0401e800040300000c
:020000040000fa
:0401ec000403000008
:020000040000fa
:0401f0000403000004
:020000040000fa
:0401f4000403000000
:020000040000fa
:0401f80004030000fc
:020000040000fa
:0401fc0004030000f8
:020000040000fa
:0402080004030000eb
:020000040000fa
:04020c0004030000e7
:020000040000fa
:0402100004030000e3
:020000040000fa
:0402140004030000df
:020000040000fa
:0402180004030000db
:020000040000fa
:04021c0004030000d7
:020000040000fa
:0402200004030000d3
:020000040000fa
:0402240004030000cf
:020000040000fa
:0402280004030000cb
:020000040000fa
:04022c0004030000c7
:020000040000fa
:0402300004030000c3
:020000040000fa
:0402340004030000bf
:020000040000fa
:0402380004030000bb
:020000040000fa
:04023c0004030000b7
:020000040000fa
:0402400004030000b3
:020000040000fa
:04024400340300007f
:020000040000fa
:0402480004030000ab
:020000040000fa
:04024c0004030000a7
:020000040000fa
:0402500004030000a3
:020000040000fa
:04025400040300009f
:020000040000fa
:04025800040300009b
:020000040000fa
:04025c000403000097
:020000040000fa
:040260000403000093
:020000040000fa
:04026400040300008f
:020000040000fa
:04026800040300008b
:020000040000fa
:04026c000403000087
:020000040000fa
:040270000403000083
:020000040000fa
:040274007203000011
:020000040000fa
:04027800040300007b
:020000040000fa
:04027c000403000077
:020000040000fa
:040280000403000073
:020000040000fa
:04028400040300006f
:020000040000fa
:04028800040300006b
:020000040000fa
:04028c000403000067
:020000040000fa
:040290000403000063
:020000040000fa
:040294005003000013
:020000040000fa
:04029800040300005b
:020000040000fa
:04029c000403000057
:020000040000fa
:0402a0000403000053
:020000040000fa
:0402a400040300004f
:020000040000fa
:0402a800040300004b
:020000040000fa
:0402ac000403000047
:020000040000fa
:0402b0000403000043
:020000040000fa
:0402b400040300003f
:020000040000fa
:0402b800040300003b
:020000040000fa
:0402bc000403000037
:020000040000fa
:0402c0000403000033
:020000040000fa
:0402c400040300002f
:020000040000fa
:0402c800040300002b
:020000040000fa
:0402cc000403000027
:020000040000fa
:0402d0000403000023
:020000040000fa
:0402d400040300001f
:020000040000fa
:0402d800040300001b
:020000040000fa
:0402dc000403000017
:020000040000fa
:0402e0000403000013
:020000040000fa
:0402e400040300000f
:020000040000fa
:0402e800040300000b
:020000040000fa
:0402ec000403000007
:020000040000fa
:0402f0000403000003
:020000040000fa
:0402f40004030000ff
:020000040000fa
:0402f80004030000fb
:020000040000fa
:0402fc0004030000f7
:020000040000fa
:0403000004030000f2
:020000040000fa
:0403040004030000ee
:020000040000fa
:0403080004030000ea
:020000040000fa
:04030c0004030000e6
:020000040000fa
:0403100004030000e2
:020000040000fa
:0403140004030000de
:020000040000fa
:0403180004030000da
:020000040000fa
:04031c0004030000d6
:020000040000fa
:0403200004030000d2
:020000040000fa
:0403240004030000ce
:020000040000fa
:0403280004030000ca
:020000040000fa
:04032c0004030000c6
:020000040000fa
:0403300004030000c2
:020000040000fa
:0403340004030000be
:020000040000fa
:0403380004030000ba
:020000040000fa
:04033c0004030000b6
:020000040000fa
:0403400004030000b2
:020000040000fa
:0403440004030000ae
:020000040000fa
:0403480004030000aa
:020000040000fa
:04034c0004030000a6
:020000040000fa
:0403500004030000a2
:020000040000fa
:04035400040300009e
:020000040000fa
:04035800040300009a
:020000040000fa
:04035c000403000096
:020000040000fa
:040360000403000092
:020000040000fa
:04036400040300008e
:020000040000fa
:04036800040300008a
:020000040000fa
:04036c000403000086
:020000040000fa
:040370000403000082
:020000040000fa
:04037400040300007e
:020000040000fa
:04037800040300007a
:020000040000fa
:04037c000403000076
:020000040000fa
:040380000403000072
:020000040000fa
:04038400040300006e
:020000040000fa
:04038800040300006a
:020000040000fa
:04038c000403000066
:020000040000fa
:040390000403000062
:020000040000fa
:04039400040300005e
:020000040000fa
:04039800040300005a
:020000040000fa
:04039c000403000056
:020000040000fa
:0403a0000403000052
:020000040000fa
:0403a400040300004e
:020000040000fa
:0403a800040300004a
:020000040000fa
:0403ac000403000046
:020000040000fa
:0403b0000403000042
:020000040000fa
:0403b400040300003e
:020000040000fa
:0403b800040300003a
:020000040000fa
:0403bc000403000036
:020000040000fa
:0403c0000403000032
:020000040000fa
:0403c400040300002e
:020000040000fa
:0403c800040300002a
:020000040000fa
:0403cc000403000026
:020000040000fa
:0403d0000403000022
:020000040000fa
:0403d400040300001e
:020000040000fa
:0403d800040300001a
:020000040000fa
:0403dc000403000016
:020000040000fa
:0403e0000403000012
:020000040000fa
:0403e400040300000e
:020000040000fa
:0403e800040300000a
:020000040000fa
:0403ec000403000006
:020000040000fa
:0403f0000403000002
:020000040000fa
:0403f40004030000fe
:020000040000fa
:0403f80004030000fa
:020000040000fa
:0403fc0004030000f6
:020000040000fa
:10040000efd320000e7f22000e01880000000000c4
:10041000000020000000e000020032000001200087
:100420002002880014000700d80007000000e00048
:1004300003003a00806e2100010020000200370016
:100440000000200001002000810f70000100320038
:1004500014000700000020000000e000020032004d
:10046000000002000000000034190200000000003b
:100470000040da000000fe004440a90020002000f7
:100480000000e0000300320010002000900188000e
:100490004440a800000006008a1f78008b1f7800e7
:1004a00000000600a1028800800478000000eb0034
:1004b0001f003700e284440054a0b4009905ba003c
:1004c000e284440054a0b4009906ba00e2844400d7
:1004d00054a0b4000006eb00476fde00fd07b20039
:1004e000ae018800636ce10003003a00eaff0700f8
:1004f0000000eb000e003700606ce10008003a00dd
:10050000004deb000a05e800020039003420ec0041
:100510000af0a0008b05e900f9ff3e000400370057
:100520006168e100010032000086eb000b0007006b
:1005300019c7ba001905ba000e04e00003003a001a
:100540000a00e000dbff3a0000000600fe07b200f0
:10055000ae0288008a047800f5ff37000cd0a300b3
:10056000e20f4d001c00390089027800354dba00b9
:100570000a05e800020039003420ec000af0a0006f
:100580008b05e9000f003200254dba000a05e8008e
:10059000020039003420ec000af0a0008b05e900cd
:1005a000080032000c00e0000600320015cdba0051
:1005b0000a05e800020039003420ec000af0a0002f
:1005c0008b05e9008984e80054a0b4000b00e0002a
:1005d000e2ff3a00000006009902ba00055d7800cb
:1005e0008b05e900f7ff3200c82ade00055d7800c0
:1005f0008b05e900f3ff32000c00e000f1ff320050
:1006000019ddba00eeff3700809fbe003200f8000f
:100610003400f80010002000a00188001000200025
:10062000900188000000fa00901680004f00de0064
:10063000004078000004a200614060000080fb00e0
:100640004f00dd00a116800001f0a1000100700044
:10065000a01688000080fa003400f9003200f9008a
:100660004f00be00004006003200f8003400f800e1
:10067000881f780018002000a801880018002000ba
:10068000980188004f0478000000fa0084e0a90077
:100690000080fa003400f9003200f9000040060042
:1006a000801f78003200f8003400f80010002000ad
:1006b000a001880010002000900188000000fa00ce
:1006c0008760a900004080000000e800004088002a
:1006d0000080fa003400f9003200f9004f00780081
:1006e00000400600809fbe003200f8003400f80091
:1006f00010002000a0018800100020009001880058
:100700000000fa00100020002040880050168000f1
:10071000680060000000e00004003a0010002000c3
:10072000404088000040800010408800d1168000c2
:1007300000102000008060000000e00004003a008b
:1007400020002000404088000040800010408800c9
:100750005116800000082000008060000000e000ca
:1007600004003a0010002000304088000040800063
:10077000104088008660a9000080fa003400f9006b
:100780003200f9004f00be000040060000000500e6
:100790000001be001b0007000470a70003f0a100c9
:1007a00003f8a30013003a006509b10010003200fd
:1007b000090035006928e100020035000100280029
:1007c0000000050000004000818048008502e9002b
:1007d000fcff3a0000000600f88f420005003500db
:1007e0008100d1000080d3008502e800fcff3a00c0
:1007f000000006008000eb00000005006011b8005a
:100800006a033700c70ade00f107b200f50fb20035
:1008100008003200e1cf4200020032000170a00067
:1008200024000500810f700001003200040805005b
:1008300044000500810f700002003a00140005001a
:100840008502e9000000400081c04800fcff3b0039
:100850000170a0002400050007f82700078361004d
:100860000638e10004003a00f707200087836100a2
:100870008703710001003a0003f0a200889fbe00c8
:100880008a9fbe008c9fbe00470ade000480a10044
:10089000c71ade000580a100070028000785600058
:1008a00087856100f70f20000720e1009e003200dd
:1008b0000728e1009c003200010678000400e000f7
:1008c000b4003200f7072000878060000170a000ac
:1008d0000500e000c0003200f707200087816100ba
:1008e0000370a000050652000f003a000b50e10013
:1008f0000b0032000308e10002003a000200e100b0
:100900007e0032000204500083845800040031004d
:100910000001fd008101fd008402fd008a05fd004b
:100920006044b800210037000520e10005003d00cb
:100930000001fd008101fd008402fd008a05fd002b
:10094000050652007a60e100050035000170a10043
:100950004722dd00848070008a80700063003700c9
:100960006044b800ef02660007ff2f00070666002c
:100970000500e00006003400f08312008714dd005b
:100980000511de00071bdd00060171008519de0080
:100990007060e100050035000904780082047800e9
:1009a000030178008001eb00700656000b50e10057
:1009b00003003a0002004000838048000400370032
:1009c00060041400e0841c0002005800838058007a
:1009d0000188a300060032008100d1000080d3000e
:1009e0008984d3000884d3000402e800270037007c
:1009f0000178a30025003a000100e0000300320066
:100a00008186cf00698656000a0037008c002000de
:100a10000000e00004003a00090078008804780033
:100a20000004eb00700252008086cf000d064600e5
:100a30000c06e9007060e1000600350080007800d7
:100a400009007800880478000004eb007006560066
:100a5000700252000c00e0000c0034008c08dd0035
:100a6000f00316000703de00868070000c00dd0036
:100a7000074bde00060070008c4cdd000743de00f3
:100a8000868474000c44dd000c0252006120e100f9
:100a900020003500610160000700280087816400a4
:100aa000f7ff270087836400070374000300e0005a
:100ab0000600320082037300040032000000e800e8
:100ac000e08048000188a3000e003a00f70f2000e4
:100ad0000720e1004a003d000170a1004722dd002f
:100ae000810072008a8070000000be004f06be00c8
:100af0004f05be004f04be00000006006000b800b5
:100b0000faff37008100d1000080d3000402e80022
:100b1000eeff37000401780089017400a10107008d
:100b20008a807000f1ff3700f701070007027800a4
:100b30000001fd008101fd00f3010700870278003c
:100b4000850372000778a300040032000001fd0055
:100b50008101fd0006020700e4ff37008503620003
:100b60000768a300080032000b50e10003003200c8
:100b7000f0ff2f00f1ff2700dcff37000001fd0030
:100b80008101fd00d9ff37000468a300d7ff3200c0
:100b9000faff3700f8ff2700888360000b003a0057
:100ba0000000e00009003a008303640082837300c0
:100bb000020032000200be00ccff37000b50e10003
:100bc000ceff3a000200be00c8ff3700140020002c
:100bd000810064003eff3700f8ff27008883610032
:100be00004003a000200e00002003a008c007800a5
:100bf000beff3700150020008301640039ff370075
:100c000001f827000000200081007500b7ff3700c1
:100c1000889fbe008a9fbe008c9fbe001b002000e4
:100c20000202be000586680006002800060666006f
:100c30004709de00f20fb200820032000243e800f2
:100c400080003200c729de00f30fb2007d003200c1
:100c50000343e8007b003200f107b2000170a000fe
:100c6000f507b2000570a000c708dd004903de00eb
:100c7000868070004700dd00c72add004923de00c2
:100c8000868272004722dd000305510004035000f4
:100c90008583580003003100000040008180480037
:100ca0000a05e9008c1f78008a9fbe0004005000ee
:100cb000858058000402420085824a0000004000fe
:100cc000818048000005eb000004be006033b800de
:100cd0000406be000d48e100560031001100090075
:100ce0004dccd8000c01b8000d02b8008481410041
:100cf00060824a008283530003045c0084845c00a9
:100d000060055d000a00e00025003a0080057800db
:100d10000d40e100490031008800780007007800ac
:100d2000110009004d88d8000c01b8000d02b80070
:100d30008481410060824a006003110083835b006c
:100d400004045c00e0845c000900e00021003a003b
:100d50004f01be000300e0002b003200e301600001
:100d6000070673008c81710001003200640070007e
:100d70004200de004e5edd000c007000c258de0056
:100d800001e0a00083010700cf017800818071009d
:100d90004f06be004f05be004f04be000000060017
:100da0008c8343000d044c00e0844c0060054d0032
:100db0000000e9000a00e000d4ff32008c83430009
:100dc0000d044c00e0844c0060054d000000e9007b
:100dd000ceff37000c0343008d834b0060044c00b2
:100de000e0844c000000e9000900e000d8ff320078
:100df0000c0343008d834b0060044c00e0844c00e6
:100e00000000e900d2ff37004200de004e5edd0048
:100e10000c007000c258de0001e0a000cf01780095
:100e20000300e000daff320060001000e0801800ec
:100e3000d7ff3700f0ff2f00aaff3700f0ff2f0089
:100e4000b9ff37000404be002f01070087067800b1
:100e50000004fd008104fd002b01070007836600ec
:100e60000678a300030032000960a7000800be0056
:100e70002c0037000d78a300020032000800be00ed
:100e8000280037000778a30026003a0001f0a100ef
:100e900009f0a1000668a30003003200f1ff27005b
:100ea000f0ff2f00baff37000d68a30003003200e7
:100eb0000800be008c807000b5ff37000768a300f3
:100ec00007003a000648a30003003200f1ff2700a4
:100ed000f0ff2f00aeff37000d48a30003003200e3
:100ee0006000b8008c807000a9ff37000748a3009d
:100ef0000400320001f82700000020008c80700000
:100f0000a3ff3700760107000004fd008104fd0007
:100f100002057800720107000802be008a0178000d
:100f200059ff37000160a0001202200062408800d3
:100f300097ff37000100e000120032000500e000da
:100f400010003200889fbe008a9fbe008c9fbe00aa
:100f50000006eb0001f8a30003003200600010005f
:100f6000e08018000cf0a00005f8a3000300320098
:100f700060021200e0821a000cf0a2008005eb0073
:100f800041ff37006000b8000200050003836800dd
:100f90000700280007036300470ade000480a10061
:100fa000c71ade000580a100f70f20000720e1002e
:100fb000420032000728e10040003200889fbe0056
:100fc0008a9fbe008c1f7800f107b200f307b200c1
:100fd0000400e000640032000170a0000500e000a1
:100fe000680032000370a00085054200eb07b100e5
:100ff0000204b8000302b8008484440060854a00fb
:10100000020ab800848444000a854a00030ab80032
:1010100004054500040033000804d0008984d20090
:101020000a85d2008b05e9006158e1003d003500da
:10103000021020000901610003082000898161007d
:10104000f70720008783640008867300c84cde0021
:10105000c853dd00878474004855de000300e000bb
:101060000600320082037600040032008904e800a2
:1010700060054d000a88a3000c003a00f70f20001d
:101080000758e10044003d000a70a100c75ddd0083
:101090000a8575008a007300090078004f06780001
:1010a0004f05be004f04be00000006000a05d10037
:1010b0008984d3008b05e800f0ff3700881f780093
:1010c0000604780090000700070278000001fd0088
:1010d0008101fd008c000700870278008503720003
:1010e0000778a300050032000001fd008101fd002a
:1010f0009f0007004f04780000000600850372007f
:101100000748a30003003200f0ff2f00f1ff270083
:10111000f8ff37000000200001f8270088807000e9
:10112000f4ff3700880178004848dd0080817100b5
:101130004848de00c850dd0001007000c850de00e5
:10114000060478000b017800160007008880700004
:10115000d2ff37000500e000050032001700200034
:101160003a0007009dff370081037000f9ff3a0045
:10117000860078004f0678004f05be004f04be0081
:101180000000050083037100f9ff320027002000f2
:101190002e00070094ff370001f8270086807000ba
:1011a000f4ff37000100e000260032006101110069
:1011b0007810e10023003c006022b8007010e100cc
:1011c0000400350080027800010078008000eb0008
:1011d000700151000200e0000900340070031100aa
:1011e000062add00822ade008603dd008782720087
:1011f0000200de00860bdd00070070008208de00c2
:1012000084817100f4ff27000482620084817100f0
:1012100004002800848262006102600005f0a600dc
:101220000000060004827100070032000000e800a0
:10123000e0804800000006000002be006000b80028
:10124000efff37006000b80000000600889fbe0076
:101250000004eb006138e10016003a000100e000f4
:1012600008003a00c800de004800dd0088002000c9
:101270000100e00003003a00c800de004800dd0085
:10128000680444008184cf00e984540006003400df
:101290008908dd00f08314008703de00878070007a
:1012a0000900dd0009044400610214004f04be007f
:1012b000000006000300e00008003a00c811de004c
:1012c0004811dd00880020000300e00003003a0020
:1012d000c811de004811dd00680444008384cf009b
:1012e000e9845400060034008919dd00f0831400fd
:1012f0008713de00878171000911dd0009044400b5
:10130000e1021400e9ff37002700200001f0a700e8
:1013100017002000470bde00f60fb2000400320079
:101320000643e8000a0032004702b300000006004e
:1013300001037800f607b2000603700002003a00cd
:101340000703b300000006008702b3000000060098
:1013500001037800f607b2000603700002003200b5
:101360000770a000000006000760a0000000060053
:101370000478a300040032000578a30003003200c3
:101380000168a30001003a000200be000160a00055
:101390000000060081017000270032008002eb008f
:1013a00001f8a3000300320060001000e080180084
:1013b00015002000f4072000020242002000340043
:1013c000f703200087036000060420000003630089
:1013d00002082000000161004700de00c909dd00ad
:1013e00000807100c708de000600e000080032003f
:1013f00087037100060032001000b0000180b000c9
:101400000188a30002003200c108de000402e800e7
:10141000f107b200f30f20000320e10003003d00bc
:101420004722dd00810072002900370001f8270003
:101430000000eb00260037006000b8000000060046
:10144000680212007f20e100020034006000b80052
:101450001f0037006011b8007020e1000400350063
:1014600080017800010078008000eb0070025200db
:101470000400e00009003400f00312000719dd0049
:101480008419de000703dd00868171000400de00a0
:10149000070bdd00060070008408de00f7ff270060
:1014a0008383630087037100060028000303630041
:1014b000070032000700e00003003a00610160000d
:1014c00002817300020032001000b0000180b00001
:1014d0000500a6000000060001f0a00000000600c4
:1014e0004f0ade004709de00f107b200f20fb2003a
:1014f0000b003200f207b1000170a000c708dd0048
:10150000c901de00838070004700dd000400a600f2
:101510000000060060001000e080180000000600d7
:10152000810f700001003a00000006008182cf00a8
:101530000500e00010003e008082cf00ee824200f5
:101540007028e1000400390007003e0080007800a8
:101550000000eb000e003700708312008600de00f2
:101560000500dd000a003700708352008600dd00b0
:101570000000eb0006003700e28252008508dd0023
:10158000708312000603de00868070000500dd0017
:101590007507b0000501ea000400a600000006007f
:1015a00060001000e080180000000600889fbe0068
:1015b0008a9fbe00008270000402710004827100e4
:1015c000260032000004be000200be006011b80018
:1015d0006b092000950220000182cf000a0039002b
:1015e0000541b1000082cf00070039000541b1007c
:1015f0000982cf00040039000541b1000882cf0004
:10160000010039000541b1000542520012003200cc
:101610000a003b0082817100610164008100d100f9
:101620000080d3008984d3000884d3008b05e800b0
:101630000442e800f7ff3a000700370008044400be
:1016400089844c0000004800818048008b05e90037
:101650000442e900f9ff3a00030007004f05be000d
:101660004f04be000000060081002000618055008c
:101670000b003d000b00200061fe2f000100e10087
:101680001d00340082817100610164008904d10071
:101690000884d3000000e800faff3a00710020003f
:1016a0006100640003007000020060000900320065
:1016b00061044400e0844c000988a5000500320064
:1016c0008b05e8006808e10002003a008904d100b7
:1016d0000884d300f20f20000258e10005003d000d
:1016e000c75ddd00f907b200898075000800780049
:1016f000000006000bf827008b00780000000500b2
:101700000800fa000002be008501780003f0a10085
:1017100000017800a6fd200097f42300860f5100f9
:10172000878f590006003e00f4ff2f00f597230035
:10173000840f5100858f5900640036005d0037002a
:101740004f0ade0005002000163d2500b7072400e3
:10175000860f5100878f590019003e0036be2c00bd
:1017600067012400860f5100878f59000a003e0050
:101770000400e00004003200b2fd200093fc2300ce
:101780003efc07004f003700b2fd200093fc230011
:1017900031fc0700420037000400e0000400320082
:1017a000b2fd20009304240034fc07004000370001
:1017b000b2fd20009304240027fc07003c00370002
:1017c000561d2300270e2400860f5100878f5900d5
:1017d00019003e00f6dd2e00f70a2400860f5100a6
:1017e000878f59000a003e000400e0000400320028
:1017f00042be2c006309240020fc070028003700ab
:1018000042be2c006309240013fc07002d003700a2
:101810000400e00004003200b2fd2000930c24001c
:1018200016fc070023003700b2fd2000930c2400b3
:1018300009fc07001f003700f4ff2f00f5f7270011
:10184000840f5100858f5900030036000001be004f
:1018500001fc07001d003700688157004b0007009e
:101860006011b80063016000e10f5100e08f590082
:1018700009003200e20f5100e08f59000a003200e7
:10188000e00f5100e08f59000c003a004fb897006c
:10189000dfb89700070037004fb89700dfb8970010
:1018a0000c000700090037004fb89700dfb8970019
:1018b00001f0a20090000700040037004fb8970025
:1018c000dfb897000300070001f0a2000080fa00d3
:1018d00000000600889fbe008a9fbe008c9fbe004d
:1018e0000001be00a9fd07000004be000001be000b
:1018f000a6fd07000005be000200200003f02b003b
:101900000800be00a1fd07000200200003f823002c
:10191000dafb07000006be00f2a92a00a3d22300ca
:101920000a00be0099fd07000001be000c00be00c9
:10193000d2fb07000006be000801be000a00be0080
:1019400092fd07000005be0072a12900c37c2300a0
:101950000800be008dfd0700f243200063ab2300aa
:10196000bdfb07000001be000a00be0087fd0700a6
:101970000001be000c00be00c0fb07004f06be0009
:101980004f05be004f04be0000000600ea87470076
:10199000889fbe008a9fbe008c9fbe008e1f78006d
:1019a0000006be00020478000005be008b0178002e
:1019b00003f0a10000017800a0fd200091dc2400cc
:1019c000800f5100818f59001e003e0032982f0079
:1019d00023f223000c00be006cfd07000200200073
:1019e00003b42400a5fb07000200200003b4240078
:1019f00099fb07000005be009804070080047800ea
:101a0000a2fd200093fc23000a00be005ffd07003a
:101a10000001be000c00be008ffb07000006be00e8
:101a2000325a2800832823000a00be0057fd070011
:101a30000001be000c00be0087fb0700008cbe004a
:101a400026003700f0ff2f00f1f72700800f51002c
:101a5000818f5900060036000c01be000c00be004c
:101a60007dfb0700008cbe008004eb001b003700ec
:101a70004718de00010020006009b1000180b100bc
:101a8000c702dd00040020000401510085815900d7
:101a900076875700029fbe000002eb001300200073
:101aa000000178008e007800768057004200070021
:101ab00080047800e00f5600e08f5e0005003d00d6
:101ac0001e00be0001f0a200008cbe008904ea00e6
:101ad000020037003e1c78002e14780009007800c0
:101ae0004f0778004f06be004f05be004f04be00f2
:101af000af00b10000000600889fbe008a9fbe00b4
:101b00008c9fbe000005be000001be001ffd070047
:101b10000004be000a01be001cfd07000006be0056
:101b20004288280083c023000800be0017fd07007c
:101b3000b2aa2a00a3e2230047fb07000001be006f
:101b40000c00be0011fd07000001be000a00be002f
:101b50004afb07000005be000801be000800be00e9
:101b60000afd07000001be000c00be0007fd0700d3
:101b70000006be00c2c32600636323000800be0047
:101b800002fd0700f27c20000395230032fb0700d2
:101b90000001be000c00be00fcfc07000001be00fe
:101ba0000a00be0035fb07004f06be004f05be0011
:101bb0004f04be0000000600af17b000889fbe00b3
:101bc0008a9fbe008c9fbe008e1f7800b0a79f002a
:101bd00081af9f000204780003057800f4a79f00fe
:101be00004004200e1c02000610078006101b900fa
:101bf000b2af9f00c3af9f000a00e9006102b900c5
:101c000094af9f00a5af9f006300540082012000a5
:101c1000110009000200d8006103b900d6a79f0097
:101c2000e7a79f00e00f5300e08f5b0003003d003b
:101c30006000b800d0a79f00e1a79f005fa19700b8
:101c4000efa197000280ea008380ea008201200071
:101c50000300200025040700cfc1de00000444007b
:101c6000818449005fa29700efa297001fab970005
:101c7000afab97000606520087865a003fa8970030
:101c8000cfa897000002430081824b006eec2f002a
:101c90000f074700c265dd0060c120008085450058
:101ca0006011b8000803be000a04be000205be00b1
:101cb000140037006000b800e00f5600e08f5e00af
:101cc0000a0035001900be00d4b79f00e5b79f0099
:101cd000f6b79f0087bf9f00010407008fbb9700e6
:101ce0007fb39700efb297005fb2970000afbe00de
:101cf00061054500e0854d0061064600e0864e0026
:101d0000e4844400840f5500858f5d00e9ff3400b2
:101d10000805780064f62f000f0242006011b80039
:101d2000b2b79f00c3b79f00840678001e0037003b
:101d30003c00be004b01be00d4b79f00e5b79f003a
:101d4000f6b79f0087bf9f0090fc07000001be0010
:101d50000800be00c9fa07000004be005fb2970089
:101d6000efb2970061024200e0824a008fbb970009
:101d70007fb397001fa89700afa89700800f52006d
:101d8000818f5a00eaff340088aebe003fb1970051
:101d9000cfb1970061014100e0814900b2b79f00d7
:101da000c3b79f000a05e8003fb29700cfb2970083
:101db0003fa89700cfa89700800f5200818f5a004c
:101dc00008003c003fa69700c255dd00a1ec2f00a3
:101dd0008f8040008b8540006044b8006022b800ce
:101de000e4ff37003fa99700cfa99700b2b79f0043
:101df000c3b79f0096b79f00a7b79f00bfb29700d9
:101e00004228dd00a6f62f000f0343000000430028
:101e10001004be006de72f008f8646003fb097008c
:101e2000cfb0970061005000e0805800f0af9f00f5
:101e300081b79f00c205dd008b0543000d057800ca
:101e40003fb39700cfb397000d0778001900370014
:101e500002002000033823000800be00f6b79f00f0
:101e600087bf9f0049fc07007c0307009c03070015
:101e70000006be000200200003b8240043fc070057
:101e80000001be000800be0073fa070073030700dc
:101e900000adbe002b00be000c01be0077fa0700ab
:101ea0000004be007fb397008fbb9700610353000f
:101eb000e0835b00e00f5300e08f5b00e4ff3c0039
:101ec0008e0678001fb697000c0178000800be004f
:101ed000340307000004be000200200003e02300da
:101ee0002afc0700d0020700020020000310240093
:101ef00026fc07000001be000800be0056fa0700dd
:101f00000005be00550307000004be00740307006f
:101f10000001be000a00be004ffa07000005be0027
:101f20001fb19700afb19700e00f5100e08f59004b
:101f300022003400ffa997004218dd00a4e72f001b
:101f40000f024200000042001002be00f80016001e
:101f50000401be00010378000603e900030033001a
:101f60008381d1000281d300fbff370008044100c8
:101f7000898449008100e900030033000201410027
:101f800083814900fbff37000201520083815a0020
:101f90000288be00770016000202be000000e900c1
:101fa000030033008582d1000482d300fbff370099
:101fb000d4af9f00e5af9f001d0037001fb397000f
:101fc000afb39700e00f5300e08f5b000b003a00c7
:101fd000ffab97004238dd00a1e72f008f80400063
:101fe000008040001000be004789de00d2af9f0095
:101ff000cf89de00e3af9f000d0037000200200014
:1020000003f0230013030700240020000500200034
:10201000d4af9f00e5af9f000000e00009003d0045
:102020006033b800d6af9f00e7af9f006200370073
:102030005fa89700efa89700e00f5000e08f5800ce
:102040005d00340061044400e0844c006000b8008e
:102050006022b800120037005d01be00e00f5200a0
:10206000e08f5a0006003a00e00f5100e08f59005f
:102070000900320004002000051020000200370093
:10208000f4ff2f00f50f2000821e520083965a00a5
:10209000140020000500200061004000e08048009e
:1020a0003fb19700cfb19700820f5000838f580047
:1020b000e9ff35001fb39700afb39700e00f53005f
:1020c000e08f5b0023003400e10f5300e08f5b00e2
:1020d00004003200e20f5300e08f5b001d003a0065
:1020e0000e003700ffab97004238dd00a1e72f005c
:1020f0008f804000008040001001be000303780084
:10210000f607b200a6a79f008203780097a79f005a
:102110001fa19700afa197000d003700ffa99700fe
:102120004218dd00a6e72f000f0343000000430024
:102130001001be0083037800f703b20087a79f0059
:1021400082007800f19f9f007f9997008fa19700f0
:102150000288be005fab9700efab9700e20f530021
:10216000e08f5b0014003a000a01be00000020006e
:1021700001f82300d4b79f00e5b79f00b6f9070028
:102180000005be005fb29700efb29700e00f52006b
:10219000e08f5a00080032000c0178000000200097
:1021a00001f823007f0207000001be000a00be0004
:1021b000a9f907000005be006011b8000a00be00c2
:1021c000a20207000000e00082003a003fb0970042
:1021d000cfb09700ffab9700423add00a2e72f0097
:1021e0000f014100040241006011b80003003700f4
:1021f0002403be0006017100878171006100500058
:10220000e08058003fab9700cfab9700860f50009f
:10221000878f5800f6ff3d00e00f5100e08f590016
:102220007a003a0061005300e0805b004200dd006c
:10223000a7e72f008f834300008043001200200097
:1022400003002000f2af9f0083b79f001200200020
:10225000030020000200370061014100e0814900d5
:102260002002be00e00f5200e08f5a00faff320059
:10227000f2af9f0083b79f003fb39700cfb39700a3
:1022800061024300e0824b004226dd00a7f62f00ea
:102290008f8343000c8643005fa19700efa1970056
:1022a00061004100e08049003fb39700cfb3970041
:1022b0000000430081804b00c204dd0060c12000ab
:1022c000808444001fa99700afa9970061004100d6
:1022d000e08049000000430081804b004201dd00a6
:1022e000a3ec2f008f81410082814100c3a79f0092
:1022f0000004e80009077800880678000404be009e
:10230000280037003e00be00750207004fa297006c
:10231000009abe00c4a79f003fa29700c26add00da
:10232000a6ec2f000f034300850243006033b80082
:102330006055b800d89f9f00e99f9f000404be002d
:102340000d0037003800be004901be00f6b79f00ff
:1023500087bf9f000dfb07000001be000a00be0002
:1023600046f907000005be007fb397008fbb9700ba
:1023700061034300e0834b001fa99700afa99700ba
:10238000820f5300838f5b00eeff34005f9c970049
:10239000ef9c97000a9ebe0061044400e0844c005c
:1023a0008d06e8007faa97008fb297003fb3970091
:1023b000cfb397000400430085804b00800f54008a
:1023c000818f5c00cfff3400b0b79f00c1b79f0082
:1023d0008afe370098af9f00a9af9f001fb49700f7
:1023e000afb497000c01ea000a00be00ed0107003f
:1023f0000005be000200200003b8240015020700fb
:102400000000e00020003d004300370098af9f002f
:10241000a9af9f001fb49700afb497003fb09700db
:10242000cfb0970061005000e0805800b0b79f0027
:10243000c1b79f0078045400e0845c00bfb09700ef
:102440004208dd00a2e72f000f014100000041001b
:102450003fb19700cfb197000400370061015100f0
:10246000e081590078045400e0845c002002be0042
:10247000e00f5200e08f5a00f8ff3200b2b79f0021
:10248000c3b79f002c003700020020000338230050
:102490000a00be00bdfa0700f001070010020700a5
:1024a0000006be00bfb29700422fdd00a6e72f0056
:1024b0000f0343000e0743000200200003b824006e
:1024c000b2fa07000001be000a00be00e2f80700f1
:1024d000e2010700008fbe003fb09700cfb0970029
:1024e00061004000e0804800b0b79f00c1b79f0086
:1024f00078044400e0844c004205dd00a1e72f0091
:102500008f8040000a8540000c00be00d301070008
:10251000008dbe00080037003fb197004216dd0075
:10252000a3e72f008f8141000c8641000a00be0006
:10253000ca010700008ebe000801780000002000dc
:1025400001f82300970107000004be003fb2970086
:10255000f4af9f008402e80095b79f00c22ddd0014
:10256000a6e72f000f0343000b054300a7f62f003b
:102570008f8343008b8543003fb69700cfb697000b
:102580000d0037004a00be00d50107000001be0063
:102590000800be007dfa070080a5be0002002000f2
:1025a000033823000800be0078fa07000004be00cc
:1025b00061065600e0865e00e00f5600e08f5e0088
:1025c000f0ff3d006df12f008f8646003fb597006c
:1025d000cfb597001c0037005c01be005e00be0056
:1025e000d4b79f00e5b79f0068fa07000001be005e
:1025f0000800be00a1f807000004be006105450008
:10260000e0854d00efb297005fb297003fa89700ba
:10261000cfa89700800f5500818f5d0007003c0018
:102620003fb19700cfb19700040051008580590059
:10263000800f5500818f5d00e7ff340088aebe003b
:1026400061055200e0855a00e00f5500e08f5d0003
:102650000b003500aed120000a06e9004266dd001d
:10266000a3f62f008f8141000c8641006044b80022
:102670006000b8000a02be000005be00e3ff37009c
:102680007fa29700e20f520005003c00e10f5200cc
:1026900010003d000400e00017003200da003700af
:1026a000ffa29700e38f5200d7003a003fb3970094
:1026b0004232dd00a7f12f008f83430004824300e4
:1026c000040778003fb39700cfb39700b4af9f00e3
:1026d000700037001fb097004205dd00a1f12f0008
:1026e0008f8040000a8540003fb49700cfb4970028
:1026f0006000b8001d0037001fb197004214dd00d4
:10270000a3f12f008f814100088441003fb597005d
:10271000cfb597006000b800040037004801be0044
:1027200056f8070061055500e0855d00e00f550093
:10273000e08f5d00f9ff3d005faa9700efaa9700c8
:10274000e00f5200e08f5a000100320001f0a200b9
:102750008faa9700808abe00ab0037004a01be00f6
:1027600046f8070061045400e0845c00e00f540068
:10277000e08f5c00f9ff3d000001be005fab9700f9
:10278000efab9700e00f5300e08f5b0001003200d9
:1027900001f0a2008fab9700808bbe005f0897000e
:1027a000ef0897002cf80700aaf12f000f0545004d
:1027b0001800200009002000040037005a01be0064
:1027c0002ef8070061044400e0844c003fb19700fc
:1027d000cfb19700820f5400838f5c00f7ff340065
:1027e0008fa99700648141005faa9700efaa970024
:1027f000e00f5200e08f5a000100320001f0a20009
:102800000089be0080003700c0ff2f00ffaa97009c
:1028100000a8b900000047003fb29700cfb2970070
:1028200061015200e0815a004211dd008202400045
:102830005506be000e0278005405be000a01be0017
:102840000c00be00d4b79f00e5b79f00f6b79f000d
:1028500087bf9f0009f807000004be000001be000a
:102860000c00be00fcf707000001be000a00be001d
:1028700002f807005fb29700008abe00efb297002f
:10288000888abe007fb397008fbb97006103530017
:10289000e0835b0064075700e00f5300e08f5b00ac
:1028a000d9ff3c003faa97003fb39700cfb39700f2
:1028b0000404780023003700c0ff2f00ffaa970010
:1028c00000a8b900800444003fb19700cfb1970041
:1028d00061005100e08059004200dd008084440026
:1028e0005902be00080778005e06be000c01be005b
:1028f0000400be00d4b79f00e5b79f00f6b79f0065
:1029000087bf9f00ddf707000005be000001be0085
:102910005fb29700efb297000400be00cef7070049
:102920000001be000c00be00d4f70700008fbe00ff
:102930008a8cbe007fb397008fbb97006103530062
:10294000e0835b0064045400e10f5300e08f5b0000
:10295000d9ff3c009fb19700421cdd00a4f12f007d
:102960000f024200080442003fb59700cfb5970020
:102970006000b800040037004801be00bff7070040
:1029800061055500e0855d00e10f5500e08f5d00b9
:10299000f9ff3c005fab9700efab9700e00f5300ef
:1029a000e08f5b000b003a000fa997005f0a9700c9
:1029b000ef0a97000499be007f0b97008f139700d2
:1029c0000689be008fab9700c0039800d103980022
:1029d0000d0037005f0a9700ef0a970005f0a2008c
:1029e0000fa997000499be007f0a97008f129700e5
:1029f00005f0a2000489be0001f0a2000fa9970013
:102a000040019800510198009fa9970067806100dc
:102a10004f0778004f06be004f05be004f04be00b2
:102a2000af17b100000006000c00fa00889fbe003e
:102a30008a9fbe008c1f78000004be006000b800b2
:102a40006011b800f0b79f0081bf9f0092bf9f0048
:102a5000a3bf9f00f8b79f0089bf9f007fb2970078
:102a60008fba97001fbb9700afbb9700443ade00b8
:102a7000f07f20000006620020432000800f5600f7
:102a800042003c006011b8000800be006f00070063
:102a90000000e0003d0032007fb097008fb8970043
:102aa0001fb99700afb99700e00f5000e08f5800b2
:102ab000e00f5900e08f590008003d00020020009f
:102ac00003b024000800be0063f7070002002000e6
:102ad00003b0240069f70700070037000200200058
:102ae00003b024000800be0064f7070002002000c5
:102af00003b0240058f707000801be0056f707008e
:102b00000005be00e03f2000800f56000f003c0093
:102b1000dab79f00ebb79f006044b8007fb0970022
:102b20008fb897001fb99700afb99700e00f50001a
:102b3000e08f5800e00f5900e08f590013003d006e
:102b40000800200009f82b00100037006011b800c1
:102b50000a00be003f0007000000e000070034004c
:102b60000a01be000800be0044f707000200200072
:102b700003f8230038f70700030037000a01be00fe
:102b80000800be003df707000004be000800be00bc
:102b90004f0678004f05be004f04be000080fa00cb
:102ba00000000600889fbe008a9fbe0002047800d5
:102bb000f93f2000890f54000d003400020020006e
:102bc00003f82700f1f80700f83fb100890f54001f
:102bd000150034000200200003f82700ebf807007e
:102be000f83fb100890f54000e003c000e00370082
:102bf00029c02f00890f54000b003d006011b80060
:102c0000e2f80700983cb000890f540006003d0030
:102c10006011b800ddf80700983cb000890f54003f
:102c200001003d0009047800f83fb000cfc4de0089
:102c3000614db9006044b8000801be00d3f8070038
:102c40004f05be004f04be00000006001400200027
:102c50002c003700f4ff2f002a0037000001be00cf
:102c6000e8f607000470a70003f0a1006509b100b1
:102c7000160032000d0035006828e100060035001e
:102c8000f0ff2f00f1ff27000300e00013003b00de
:102c9000010028000000050000004000818048007d
:102ca0008502e900fcff3a0008003700f88f420077
:102cb00002003c008000eb00000005008100d10014
:102cc0000080d3008502e800fcff3a000300e0002a
:102cd00002003b0060001000e080180000000600c9
:102ce0004f89de008201780021003700020ab90016
:102cf000001bb9000200b8008100420081004300bf
:102d000000000600889fbe008a9fbe00841f7800d6
:102d1000270007004f00780011003300f0ff2f005c
:102d2000838f6c0006003b00040565000a00a700c5
:102d30000800370009f0a600100020000800370046
:102d4000820f5400838f5c000300390010002000c4
:102d500001003e000000200009f0a7000000ea008a
:102d60004f05be004f04be000000e000000006005a
:102d7000881f7800030478000300e00007003d008e
:102d800060001000e080180060011900e081190067
:102d900002003b0001f02d000300370003fa07009a
:102da00008f0a70001f0a0004f0478000000060022
:102db0000004be0093f607000003be000405be0039
:102dc0000200be008ff60700844f75000000060069
:020000040000fa
:102dd0000e08000000020000820000000100000058
:102de00000000000000000000000000000000000e3
:102df00000000000000000000000000000000000d3
:102e000000000000000000000000000000000000c2
:102e100000000000000000000000000000000000b2
:1030800000000000000000000e0a00000002000026
:103090008000000000080000080000008000000020
:1030a0000808000004000000820000000100040085
:1030b000000000000c08000002000000800000007a
:1030c0000e0c00003001000082000000030004002c
:1030d0000004000006008300f9a20000444e6e00c8
:1030e00000fc29001500d10057270000dd34f50051
:1030f0000062db00c0003c00999500004190430055
:1031000000635100fe00bb00deab0000b761c500ec
:10311000003a6e002400d2004d4200004906e00053
:103120000009ea002e001c0092d10000eb1dfe00f9
:103130000029b1001c00e8003ea70000f535820020
:103140000044bb002e009c00e9840000b4267000ff
:1031500000417e005f00d6009139000053833900a2
:10316000009cf40039008b005f84000028f9bd004a
:1031700000f81f003b00de00ff9700000f980500dd
:1031800000112f00ef000a005a8b00006d1f6d0028
:1031900000cf7e0036000900cb270000464fb70065
:1031a000009e66003f002d00ea5f0000ba27750010
:1031b00000e5eb00c7003d007bf10000f739070098
:1031c000009252008a00fb006bea00001fb15f0012
:1031d00000085d008d003000035600007bfc4600b7
:1031e00000f0ab006b002000bccf000036f49a006a
:1031f00000e3a9001d005e0061910000081be600cd
:10320000008599006500a000145f00008d406800f3
:103210000080d800ff002700734d00000606310033
:1032200000ca56001500c900a87300007be26000c8
:10323000006b8c00c000da000fc93f006821a200bb
:1032400033c43400c2278b0062c61b001cdc800024
:103250000f022900d103140000000000000000004c
:08326000000000000000000066
:020000040000fa
:103268000400fa00889fbe00f200070020a1270092
:1032780010088800502d200060088800f07c20008d
:10328800d0088800110020000e80e80001087800ae
:103298000000eb00000f7800200037001e007800c7
:1032a8008000eb0053f5070002002000f3372400ec
:1032b80055f60700325c2f00830c240031f7070015
:1032c8000004be000e80e800100078008000eb00cb
:1032d80048f507000001be000800be0029f70700f6
:1032e80005f90700020020000330240025f7070035
:1032f80002002000033024005ef5070022f50700d5
:10330800000178001e00780080004000e080200066
:1033180000804000020878001e0fe800f00f20002f
:103328009e007800808f5000dcff3600e08020008f
:103338000020b000301c8800e0802000201c88009d
:10334800e0802000601c880020442000701c880059
:1033580000102000801c88008803a800511c8000f1
:10336800f00f2c00808060000050230001007000e6
:10337800501c88008480a900050037000000000068
:1033880003003700000000000100370000000000c3
:1033980020048000680060000000e0000d0032009a
:1033a800902c80004700de00614060000004a2000d
:1033b800614060000080fb00610060004700dd00a4
:1033c800912c80000170a10001007000902c8800f1
:1033d8008460a90040408000e10f50004c003a0092
:1033e8000140800010408000008050005140800063
:1033f800810f50003a0036005016800068006000c7
:103408000000e00036003a000e80e8001000780066
:103418008000e8000e80e800010878000e80e800cf
:1034280010007800ea0f500003003600a1002000c9
:103438000e80e800010878000000eb00000f78001b
:10344800200037001e0078008000eb00e9f4070038
:1034580002002000f3372400ebf50700325c2f0050
:10346800830c2400c7f607000004be000e80e800a5
:10347800100078008000eb00def407000001be00b9
:103488000800be00bff607009bf8070002002000f6
:1034980003302400bbf6070002002000033024009c
:1034a800f4f40700b8f40700000178001e00780063
:1034b80080004000e0802000008040000208780082
:1034c8001e0fe800f00f20009e007800808f50004b
:1034d800dcff36000828ef000428ef000c00370056
:1034e8000140800010408000008050005140800062
:1034f800810f5000060036005016800068006000fa
:103508000000e000020032000828ef000428ef0065
:1035180040408000e20f50001b003a00014080004c
:10352800104080000080500051408000810f500002
:1035380009003600d11680000010200000806000cd
:103548000000e00004003a00500520002011880027
:103558000428ef000c003700014080001040800074
:103568000080500051408000810f50000600360056
:10357800d116800000102000008060000000e000ec
:10358800010032000428ef0030408000e10f5000b5
:103598007aff3a000140800010408000008050000f
:1035a80051408000810f50001400360051168000f1
:1035b80000082000008060000000e0000f003a00d2
:1035c800501680004c00de00614060000004a2003c
:1035d800614060000080fb00610060004c00dd007d
:1035e8006116800001c0a10001007000601688000b
:1035f8000628ef000428ef0065ff3700014080002f
:10360800104080000080500051408000810f500021
:103618005cff360051168000000820000080600022
:103628000000e00059ff32000628ef000428ef00f0
:1036380057ff37000000fa00313a8000f08f2f0062
:10364800008060000080a000303a8800313a800095
:10365800f0f32f0000806000303a8800e244a900af
:10366800e2e4a900e704a900e264a900e384a90050
:10367800c842a900d182a900c8e2a800d1e2a900e5
:10368800d902a800c862a800c982a900cc42a90032
:10369800d582a900d5e2a900cd82a900ce42a80012
:1036a800413a800000fc2f0000806000403a88000a
:1036b8008660a9009660a8006520a80068a0a800f8
:1036c80062a0a8006ea0a80005e1a800210880005b
:1036d8000003200001007000200888000421a900d0
:1036e8000441a90004c1a90011e1a80081088000d3
:1036f800f0fc2f0000806000800888001021a900dd
:103708001fe1a800f1088000f0fc2f000080600095
:103718000040a000f00888001e21a90094e0a8003d
:103728009760a800212c800080ff2f000080600097
:103738003000b300202c880085e5a800212c8000eb
:1037480070fe2f0000806000202c880085a5a8004e
:1037580086a5a80086e5a9008685a800112c80000a
:103768000003200001007000102c880083e5a800e9
:10377800112c8000f07f2c0000806000102c880045
:10378800112c800080ff2f0000806000102c880022
:1037980089c5a80089e5a8008a05a8008a25a80087
:1037a8008a85a8008aa5a8008ac5a8008ae5a80075
:1037b8008b05a8008b25a8008b45a8008b65a80061
:1037c8008de5a8008fc5a80041e4a80041a4a80081
:1037d8004184a9004164a9004104a9000122800094
:1037e800c0ff2f00008060000010a00000228800a9
:1037f800cb82a80081e3a8008003a9008803a90060
:103808008943a9008923a800411c8000f0f32f00f8
:10381800008060000060a000401c88008823a90088
:10382800411c800030ff2f00008060000020a000b5
:10383800401c880021e2a80021a2a9002182a8003a
:1038480001118000f0cf2f00008060000011880077
:103858002082a9002062a8000111800090ff2f009b
:10386800008060000011880050022000401188008c
:10387800113a8000f00b20000081600060042000f5
:103888007105200023742000804978008149780060
:10389800824978007136800000fc2f0000806000ab
:1038a8003000b300703688002135800000fc2f00fe
:1038b800008060001001b30020358800103a8000b5
:1038c800000178000260a00060042000710520005b
:1038d8002374200080497800814978008249780063
:0838e8000080fa000000060058
:020000040000fa
:020000040002f8
:04aff0003f0200001c
:020000040000fa
:020000040002f8
:04aff400807f00005a
:020000040000fa
:020000040002f8
:04aff8009f41000075
:020000040000fa
:020000040002f8
:04affc00bf39000059
:00000001FF
