:020000040000fa
:080000000002040000000000f2
:020000040000fa
:0400080036030000bb
:020000040000fa
:04000c0036030000b7
:020000040000fa
:0400100036030000b3
:020000040000fa
:0400140036030000af
:020000040000fa
:0400180036030000ab
:020000040000fa
:04001c0036030000a7
:020000040000fa
:0400200036030000a3
:020000040000fa
:04002400360300009f
:020000040000fa
:04002800360300009b
:020000040000fa
:04002c003603000097
:020000040000fa
:040030003603000093
:020000040000fa
:04003400360300008f
:020000040000fa
:04003800360300008b
:020000040000fa
:04003c003603000087
:020000040000fa
:040040003603000083
:020000040000fa
:0400440004030000b1
:020000040000fa
:04004800360300007b
:020000040000fa
:04004c003603000077
:020000040000fa
:040050003603000073
:020000040000fa
:04005400360300006f
:020000040000fa
:04005800360300006b
:020000040000fa
:04005c003603000067
:020000040000fa
:040060003603000063
:020000040000fa
:04006400360300005f
:020000040000fa
:04006800360300005b
:020000040000fa
:04006c003603000057
:020000040000fa
:040070003603000053
:020000040000fa
:040074008e030000f7
:020000040000fa
:04007800360300004b
:020000040000fa
:04007c003603000047
:020000040000fa
:040080003603000043
:020000040000fa
:04008400360300003f
:020000040000fa
:04008800360300003b
:020000040000fa
:04008c003603000037
:020000040000fa
:040090003603000033
:020000040000fa
:0400940066030000ff
:020000040000fa
:04009800360300002b
:020000040000fa
:04009c003603000027
:020000040000fa
:0400a0003603000023
:020000040000fa
:0400a400360300001f
:020000040000fa
:0400a800360300001b
:020000040000fa
:0400ac003603000017
:020000040000fa
:0400b0003603000013
:020000040000fa
:0400b400360300000f
:020000040000fa
:0400b800360300000b
:020000040000fa
:0400bc003603000007
:020000040000fa
:0400c0003603000003
:020000040000fa
:0400c40036030000ff
:020000040000fa
:0400c80036030000fb
:020000040000fa
:0400cc0036030000f7
:020000040000fa
:0400d00036030000f3
:020000040000fa
:0400d40036030000ef
:020000040000fa
:0400d80036030000eb
:020000040000fa
:0400dc0036030000e7
:020000040000fa
:0400e00036030000e3
:020000040000fa
:0400e40036030000df
:020000040000fa
:0400e80036030000db
:020000040000fa
:0400ec0036030000d7
:020000040000fa
:0400f00036030000d3
:020000040000fa
:0400f40036030000cf
:020000040000fa
:0400f80036030000cb
:020000040000fa
:0400fc0036030000c7
:020000040000fa
:0401000036030000c2
:020000040000fa
:0401040036030000be
:020000040000fa
:0401080036030000ba
:020000040000fa
:04010c0036030000b6
:020000040000fa
:0401100036030000b2
:020000040000fa
:0401140036030000ae
:020000040000fa
:0401180036030000aa
:020000040000fa
:04011c0036030000a6
:020000040000fa
:0401200036030000a2
:020000040000fa
:04012400360300009e
:020000040000fa
:04012800360300009a
:020000040000fa
:04012c003603000096
:020000040000fa
:040130003603000092
:020000040000fa
:04013400360300008e
:020000040000fa
:04013800360300008a
:020000040000fa
:04013c003603000086
:020000040000fa
:040140003603000082
:020000040000fa
:04014400360300007e
:020000040000fa
:04014800360300007a
:020000040000fa
:04014c003603000076
:020000040000fa
:040150003603000072
:020000040000fa
:04015400360300006e
:020000040000fa
:04015800360300006a
:020000040000fa
:04015c003603000066
:020000040000fa
:040160003603000062
:020000040000fa
:04016400360300005e
:020000040000fa
:04016800360300005a
:020000040000fa
:04016c003603000056
:020000040000fa
:040170003603000052
:020000040000fa
:04017400360300004e
:020000040000fa
:04017800360300004a
:020000040000fa
:04017c003603000046
:020000040000fa
:040180003603000042
:020000040000fa
:04018400360300003e
:020000040000fa
:04018800360300003a
:020000040000fa
:04018c003603000036
:020000040000fa
:040190003603000032
:020000040000fa
:04019400360300002e
:020000040000fa
:04019800360300002a
:020000040000fa
:04019c003603000026
:020000040000fa
:0401a0003603000022
:020000040000fa
:0401a400360300001e
:020000040000fa
:0401a800360300001a
:020000040000fa
:0401ac003603000016
:020000040000fa
:0401b0003603000012
:020000040000fa
:0401b400360300000e
:020000040000fa
:0401b800360300000a
:020000040000fa
:0401bc003603000006
:020000040000fa
:0401c0003603000002
:020000040000fa
:0401c40036030000fe
:020000040000fa
:0401c80036030000fa
:020000040000fa
:0401cc0036030000f6
:020000040000fa
:0401d00036030000f2
:020000040000fa
:0401d40036030000ee
:020000040000fa
:0401d80036030000ea
:020000040000fa
:0401dc0036030000e6
:020000040000fa
:0401e00036030000e2
:020000040000fa
:0401e40036030000de
:020000040000fa
:0401e80036030000da
:020000040000fa
:0401ec0036030000d6
:020000040000fa
:0401f00036030000d2
:020000040000fa
:0401f40036030000ce
:020000040000fa
:0401f80036030000ca
:020000040000fa
:0401fc0036030000c6
:020000040000fa
:0402080036030000b9
:020000040000fa
:04020c0036030000b5
:020000040000fa
:0402100036030000b1
:020000040000fa
:0402140036030000ad
:020000040000fa
:0402180036030000a9
:020000040000fa
:04021c0036030000a5
:020000040000fa
:0402200036030000a1
:020000040000fa
:04022400360300009d
:020000040000fa
:040228003603000099
:020000040000fa
:04022c003603000095
:020000040000fa
:040230003603000091
:020000040000fa
:04023400360300008d
:020000040000fa
:040238003603000089
:020000040000fa
:04023c003603000085
:020000040000fa
:040240003603000081
:020000040000fa
:0402440004030000af
:020000040000fa
:040248003603000079
:020000040000fa
:04024c003603000075
:020000040000fa
:040250003603000071
:020000040000fa
:04025400360300006d
:020000040000fa
:040258003603000069
:020000040000fa
:04025c003603000065
:020000040000fa
:040260003603000061
:020000040000fa
:04026400360300005d
:020000040000fa
:040268003603000059
:020000040000fa
:04026c003603000055
:020000040000fa
:040270003603000051
:020000040000fa
:040274008e030000f5
:020000040000fa
:040278003603000049
:020000040000fa
:04027c003603000045
:020000040000fa
:040280003603000041
:020000040000fa
:04028400360300003d
:020000040000fa
:040288003603000039
:020000040000fa
:04028c003603000035
:020000040000fa
:040290003603000031
:020000040000fa
:0402940066030000fd
:020000040000fa
:040298003603000029
:020000040000fa
:04029c003603000025
:020000040000fa
:0402a0003603000021
:020000040000fa
:0402a400360300001d
:020000040000fa
:0402a8003603000019
:020000040000fa
:0402ac003603000015
:020000040000fa
:0402b0003603000011
:020000040000fa
:0402b400360300000d
:020000040000fa
:0402b8003603000009
:020000040000fa
:0402bc003603000005
:020000040000fa
:0402c0003603000001
:020000040000fa
:0402c40036030000fd
:020000040000fa
:0402c80036030000f9
:020000040000fa
:0402cc0036030000f5
:020000040000fa
:0402d00036030000f1
:020000040000fa
:0402d40036030000ed
:020000040000fa
:0402d80036030000e9
:020000040000fa
:0402dc0036030000e5
:020000040000fa
:0402e00036030000e1
:020000040000fa
:0402e40036030000dd
:020000040000fa
:0402e80036030000d9
:020000040000fa
:0402ec0036030000d5
:020000040000fa
:0402f00036030000d1
:020000040000fa
:0402f40036030000cd
:020000040000fa
:0402f80036030000c9
:020000040000fa
:0402fc0036030000c5
:020000040000fa
:0403000036030000c0
:020000040000fa
:0403040036030000bc
:020000040000fa
:0403080036030000b8
:020000040000fa
:04030c0036030000b4
:020000040000fa
:0403100036030000b0
:020000040000fa
:0403140036030000ac
:020000040000fa
:0403180036030000a8
:020000040000fa
:04031c0036030000a4
:020000040000fa
:0403200036030000a0
:020000040000fa
:04032400360300009c
:020000040000fa
:040328003603000098
:020000040000fa
:04032c003603000094
:020000040000fa
:040330003603000090
:020000040000fa
:04033400360300008c
:020000040000fa
:040338003603000088
:020000040000fa
:04033c003603000084
:020000040000fa
:040340003603000080
:020000040000fa
:04034400360300007c
:020000040000fa
:040348003603000078
:020000040000fa
:04034c003603000074
:020000040000fa
:040350003603000070
:020000040000fa
:04035400360300006c
:020000040000fa
:040358003603000068
:020000040000fa
:04035c003603000064
:020000040000fa
:040360003603000060
:020000040000fa
:04036400360300005c
:020000040000fa
:040368003603000058
:020000040000fa
:04036c003603000054
:020000040000fa
:040370003603000050
:020000040000fa
:04037400360300004c
:020000040000fa
:040378003603000048
:020000040000fa
:04037c003603000044
:020000040000fa
:040380003603000040
:020000040000fa
:04038400360300003c
:020000040000fa
:040388003603000038
:020000040000fa
:04038c003603000034
:020000040000fa
:040390003603000030
:020000040000fa
:04039400360300002c
:020000040000fa
:040398003603000028
:020000040000fa
:04039c003603000024
:020000040000fa
:0403a0003603000020
:020000040000fa
:0403a400360300001c
:020000040000fa
:0403a8003603000018
:020000040000fa
:0403ac003603000014
:020000040000fa
:0403b0003603000010
:020000040000fa
:0403b400360300000c
:020000040000fa
:0403b8003603000008
:020000040000fa
:0403bc003603000004
:020000040000fa
:0403c0003603000000
:020000040000fa
:0403c40036030000fc
:020000040000fa
:0403c80036030000f8
:020000040000fa
:0403cc0036030000f4
:020000040000fa
:0403d00036030000f0
:020000040000fa
:0403d40036030000ec
:020000040000fa
:0403d80036030000e8
:020000040000fa
:0403dc0036030000e4
:020000040000fa
:0403e00036030000e0
:020000040000fa
:0403e40036030000dc
:020000040000fa
:0403e80036030000d8
:020000040000fa
:0403ec0036030000d4
:020000040000fa
:0403f00036030000d0
:020000040000fa
:0403f40036030000cc
:020000040000fa
:0403f80036030000c8
:020000040000fa
:0403fc0036030000c4
:020000040000fa
:10040000ef8020000e7f22000e0188000000000017
:10041000000020000000e000020032000001200087
:100420002002880014000700eb0007000000e00035
:1004300003003a0060a920000100200002003700fc
:100440000000200001002000810f70000100320038
:1004500014000700000020000000e000020032004d
:10046000000002000000000004080200000000007c
:100470000040da000000fe004440a90020002000f7
:100480000000e0000300320010002000900188000e
:100490004440a800000006008a1f78008b1f7800e7
:1004a00000000600a1028800800478000000eb0034
:1004b0001f003700e284440054a0b4009905ba003c
:1004c000e284440054a0b4009906ba00e2844400d7
:1004d00054a0b4000006eb00476fde00fd07b20039
:1004e000ae018800636ce10003003a00eaff0700f8
:1004f0000000eb000e003700606ce10008003a00dd
:10050000004deb000a05e800020039003420ec0041
:100510000af0a0008b05e900f9ff3e000400370057
:100520006168e100010032000086eb000b0007006b
:1005300019c7ba001905ba000e04e00003003a001a
:100540000a00e000dbff3a0000000600fe07b200f0
:10055000ae0288008a047800f5ff37000cd0a300b3
:10056000e20f4d001c00390089027800354dba00b9
:100570000a05e800020039003420ec000af0a0006f
:100580008b05e9000f003200254dba000a05e8008e
:10059000020039003420ec000af0a0008b05e900cd
:1005a000080032000c00e0000600320015cdba0051
:1005b0000a05e800020039003420ec000af0a0002f
:1005c0008b05e9008984e80054a0b4000b00e0002a
:1005d000e2ff3a00000006009902ba00055d7800cb
:1005e0008b05e900f7ff3200c82ade00055d7800c0
:1005f0008b05e900f3ff32000c00e000f1ff320050
:1006000019ddba00eeff3700809fbe003200f8000f
:100610003400f80010002000a00188001000200025
:10062000900188000000fa0084e0a9009016800084
:100630004f00de00004078000004a200614060002e
:100640000080fb004f00dd00a116800001f0a1003a
:1006500001007000a01688000080fa003400f90044
:100660003200f9004f00be0000400600809fbe002f
:100670003200f8003400f80010002000a0018800cb
:1006800010002000900188000000fa009016800001
:100690004f00de00004078000004a20061406000ce
:1006a0000080fb004f00dd00a116800001f0a100da
:1006b00001007000a01688000080fa003400f900e4
:1006c0003200f9004f00be0000400600809fbe00cf
:1006d0003200f8003400f80010002000a00188006b
:1006e00010002000900188000000fa008760a90037
:1006f000004080001140800061004000e080480020
:1007000000408800114088000080fa003400f900a1
:100710003200f9004f00be0000400600809fbe007e
:100720003200f8003400f80010002000a00188001a
:1007300010002000900188000000fa001000200046
:100740005040880050168000680060000000e00003
:1007500006003a0010002000204088000040800081
:10076000114080000000780030408800d1168000e1
:1007700000102000008060000000e00005003a004a
:100780000c28ef000040800011408000000078003d
:100790003040880051168000000820000080600072
:1007a0000000e00006003a001000200060408800d1
:1007b0000040800011408000000078003040880038
:1007c0008660a9000080fa003400f9003200f900c8
:0c07d0004f00be000040060000000500c5
:020000040000fa
:1007dc000400fa00000f78000e80e8000108780091
:1007ec001e007800e10f500064003a000e80e80013
:1007fc00100078008000eb00920020000300200025
:10080c00820f5000838f58005b003e000060010097
:10081c000900370010003700170037001e003700a2
:10082c00250037002c003700330037003a00370022
:10083c004100370048003700aac5a800a2c5a8008f
:10084c00aae5a80092c5a8009ae5a800a2e5a80010
:10085c009ac5a90049003700aac5a900a2c5a800dd
:10086c00aae5a80092c5a9009ae5a900a2e5a900ed
:10087c009ac5a90041003700aac5a800a2c5a800c6
:10088c00aae5a90092c5a8009ae5a800a2e5a900ce
:10089c009ac5a80039003700aac5a800a2c5a800af
:1008ac00aae5a80092c5a8009ae5a900a2e5a900ae
:1008bc009ac5a80031003700aac5a900a2c5a80096
:1008cc00aae5a80092c5a9009ae5a900a2e5a8008e
:1008dc009ac5a80029003700aac5a800a2c5a9007e
:1008ec00aae5a80092c5a8009ae5a900a2e5a8006f
:1008fc009ac5a80021003700aac5a800a2c5a90066
:10090c00aae5a80092c5a8009ae5a800a2e5a8004f
:10091c009ac5a80019003700aac5a800a2c5a8004e
:10092c00aae5a80092c5a9009ae5a900a2e5a9002c
:10093c009ac5a90011003700aac5a800a2c5a80035
:10094c00aae5a80092c5a8009ae5a800a2e5a8000f
:10095c009ac5a80009003700aac5a800a2c5a8001e
:10096c00aae5a80092c5a8009ae5a900a2e5a800ee
:10097c009ac5a80001003700000000001e00780096
:10098c00e20f500064003a000e80e800100078007e
:10099c008000eb009200200003002000820f50002a
:1009ac00838f58005b003e00006001000900370097
:1009bc0010003700170037001e00370025003700e5
:1009cc002c003700330037003a0037004100370065
:1009dc0048003700aa85a800a285a800aaa5a800ef
:1009ec009285a8009aa5a800a2a5a8009a85a9009e
:1009fc0049003700aa85a900a285a800aaa5a800cd
:100a0c009285a9009aa5a900a2a5a9009a85a9007a
:100a1c0041003700aa85a800a285a800aaa5a900b4
:100a2c009285a8009aa5a800a2a5a9009a85a8005d
:100a3c0039003700aa85a800a285a800aaa5a8009d
:100a4c009285a8009aa5a900a2a5a9009a85a8003c
:100a5c0031003700aa85a900a285a800aaa5a80084
:100a6c009285a9009aa5a900a2a5a8009a85a8001c
:100a7c0029003700aa85a800a285a900aaa5a8006c
:100a8c009285a8009aa5a900a2a5a8009a85a800fd
:100a9c0021003700aa85a800a285a900aaa5a80054
:100aac009285a8009aa5a800a2a5a8009a85a800de
:100abc0019003700aa85a800a285a800aaa5a8003d
:100acc009285a9009aa5a900a2a5a9009a85a900ba
:100adc0011003700aa85a800a285a800aaa5a80025
:100aec009285a8009aa5a800a2a5a8009a85a8009e
:100afc0009003700aa85a800a285a800aaa5a8000d
:100b0c009285a8009aa5a900a2a5a8009a85a8007c
:100b1c0001003700000000001e007800e30f5000b9
:100b2c0064003a000e80e800100078008000eb00b2
:100b3c009200200003002000820f5000838f580089
:100b4c005b003e0000600100090037001000370018
:100b5c00170037001e003700250037002c00370027
:100b6c00330037003a0037004100370048003700a7
:100b7c00aa05a800a205a800aa25a8009205a8000d
:100b8c009a25a800a225a8009a05a90049003700bb
:100b9c00aa05a900a205a800aa25a8009205a900eb
:100bac009a25a900a225a9009a05a90041003700a1
:100bbc00aa05a800a205a800aa25a9009205a800cc
:100bcc009a25a800a225a9009a05a800390037008b
:100bdc00aa05a800a205a800aa25a8009205a800ad
:100bec009a25a900a225a9009a05a8003100370072
:100bfc00aa05a900a205a800aa25a8009205a9008b
:100c0c009a25a900a225a8009a05a800290037005a
:100c1c00aa05a800a205a900aa25a8009205a8006b
:100c2c009a25a900a225a8009a05a8002100370042
:100c3c00aa05a800a205a900aa25a8009205a8004b
:100c4c009a25a800a225a8009a05a800190037002b
:100c5c00aa05a800a205a800aa25a8009205a9002b
:100c6c009a25a900a225a9009a05a9001100370010
:100c7c00aa05a800a205a800aa25a8009205a8000c
:100c8c009a25a800a225a8009a05a80009003700fb
:100c9c00aa05a800a205a800aa25a8009205a800ec
:100cac009a25a900a225a8009a05a80001003700e2
:100cbc00000000001e007800e40f500064003a00b1
:100ccc000e80e800100078008000eb0092002000fd
:100cdc0003002000820f5000838f58005b003e0001
:100cec0000600100090037001000370017003700c2
:100cfc001e003700250037002c003700330037006a
:100d0c003a0037004100370048003700a9c5a80059
:100d1c00a1c5a800a9e5a80091c5a80099e5a8005f
:100d2c00a1e5a80099c5a90049003700a9c5a900eb
:100d3c00a1c5a800a9e5a80091c5a90099e5a9003d
:100d4c00a1e5a90099c5a90041003700a9c5a800d3
:100d5c00a1c5a800a9e5a90091c5a80099e5a8001e
:100d6c00a1e5a90099c5a80039003700a9c5a800bc
:100d7c00a1c5a800a9e5a80091c5a80099e5a900fe
:100d8c00a1e5a90099c5a80031003700a9c5a900a3
:100d9c00a1c5a800a9e5a80091c5a90099e5a900dd
:100dac00a1e5a80099c5a80029003700a9c5a8008d
:100dbc00a1c5a900a9e5a80091c5a80099e5a900bd
:100dcc00a1e5a80099c5a80021003700a9c5a80075
:100ddc00a1c5a900a9e5a80091c5a80099e5a8009e
:100dec00a1e5a80099c5a80019003700a9c5a8005d
:100dfc00a1c5a800a9e5a80091c5a90099e5a9007d
:100e0c00a1e5a90099c5a90011003700a9c5a80042
:100e1c00a1c5a800a9e5a80091c5a80099e5a8005e
:100e2c00a1e5a80099c5a80009003700a9c5a8002c
:100e3c00a1c5a800a9e5a80091c5a80099e5a9003d
:100e4c00a1e5a80099c5a80001003700000000002a
:100e5c000080fa00000006000c00fa00e8004700d1
:100e6c00800878006800470090007800803e2000e1
:100e7c0000017800110009008280d8008000fd007c
:100e8c00e80047009100780000805000c300de00ad
:100e9c00500c22000008b8004408de00000f780057
:100eac009e007800803e20000088b9000000780089
:100ebc00e8004700910078008080500051079800ae
:100ecc00680047001001780040062000800178007f
:100edc00110009000381d8008000fd00de009000a5
:100eec0000805000c200de00b04721000008b800ae
:100efc008100d1000e80e800010878009e00780087
:100f0c00803e20000088b90000007800e80047000f
:100f1c0091007800008150000e80e800900078006d
:100f2c00400620000088b9000000780080015100c4
:100f3c006800470010017800d0cc2c000010b800dd
:100f4c004308de006a00b900000078000000510080
:100f5c0080805100d0cc2c000008b800c308de0003
:100f6c0064004700010878009e007800803e200055
:100f7c000088b90000007800e80047009100780074
:100f8c00008150000e80e8009000780040062000a0
:100f9c000088b9000000780000015100640047008f
:100fac00100078006a00b900000078008000510041
:100fbc0066004700010878009e00780010002000b1
:100fcc0003fe07000e80e80090007800200020004f
:100fdc00fffd0700640047009000780030002000ff
:100fec00fbfd0700660047009000780040002000e1
:100ffc00f7fd07000080fa00000006000400fa006c
:10100c00e3000700710020000e80e8000108780062
:10101c00204d2000000f780020a127001008880028
:10102c0090d0230060088800007d2000d008880044
:10103c001e00780088ff0700050037000000000044
:10104c000300370000000000010037000000000022
:10105c0020048000680060000000e0000d003200f9
:10106c00902c80004700de00614060000004a2006c
:10107c00614060000080fb00610060004700dd0003
:10108c00912c80000170a10001007000902c880050
:10109c008460a90050408000e10f5000e7ff3a0047
:1010ac00604080000000e00032003a000240800006
:1010bc0013408000304080008000eb0000015100a4
:1010cc00818159000e80e800100078008000eb0050
:1010dc00800f5100818f590012003600d11680000c
:1010ec0000082000008060000000e0000d003a00c5
:1010fc001e0078000000e000020032001e0fe90024
:10110c00020037000000eb00000f78001e00780092
:10111c0051ff070050002000604088000a28ef00b3
:10112c0014003700024080001340800030408000e3
:10113c008000eb0000015100818159000e80e80015
:10114c00100078008000eb00800f5100818f590057
:10115c0008003600d11680000008200000806000d6
:10116c000000e000030032005000200060408800c6
:10117c000a28ef0060408000e10f500033003a0075
:10118c000240800013408000304080008000eb0063
:10119c0000015100818159000e80e8001000780098
:1011ac008000eb00800f5100818f59001300360036
:1011bc005116800000082000008060000000e00054
:1011cc000e003a00e07022009e007800808f5000e4
:1011dc0002003e001e0fe80002003700f0702200f3
:1011ec00000f78001e0078001bff07005000200045
:1011fc00604088000a28ef0014003700024080008d
:10120c0013408000304080008000eb000001510052
:10121c00818159000e80e800100078008000eb00fe
:10122c00800f5100818f5900080036005116800044
:10123c0000082000008060000000e0000300320085
:10124c0050002000604088000a28ef0020408000f9
:10125c00e10f500031003a00024080001340800042
:10126c00304080008000eb0000015100818159006a
:10127c000e80e800100078008000eb00800f510019
:10128c00818f5900130036005016800068006000f2
:10129c000000e0000f003a00901680004c00de00c9
:1012ac00614060000004a200614060000080fb000f
:1012bc00610060004c00dd00a116800001c0a1009f
:1012cc0001007000a01688000428ef000a28ef0027
:1012dc001200370002408000134080003040800034
:1012ec008000eb0000015100818159000e80e80064
:1012fc00100078008000eb00800f5100818f5900a6
:10130c000600360050168000680060000000e00007
:10131c00020032000428ef000a28ef004040800051
:10132c00e10f500047ff3a0002408000134080005c
:10133c00304080008000eb00000151008181590099
:10134c000e80e800100078008000eb00800f510048
:10135c00818f59003dff3600901680004f00de0053
:10136c00004078000004a200614060000080fb0097
:10137c004f00dd00a116800001f0a10001007000fb
:10138c00a01688000828ef000a28ef0030ff37006d
:10139c000000fa00313a8000f08f2f0000806000ce
:1013ac000080a000303a8800313a8000f0f32f0022
:1013bc0000806000303a8800e244a900e2e4a90011
:1013cc00e704a900e264a900c842a900d182a900df
:1013dc00c8e2a800d1e2a900d902a800c862a800fe
:1013ec00cc42a900d582a900d5e2a900ce42a80022
:1013fc00413a800000fc2f0000806000403a8800d9
:10140c008660a9009660a8006520a80068a0a800c6
:10141c0062a0a8006ea0a80005e1a8002108800029
:10142c000003200001007000200888000421a9009e
:10143c000441a90004c1a90011e1a80081088000a1
:10144c000003200001007000800888001021a90012
:10145c001fe1a800f1088000f0fc2f000080600064
:10146c000040a000f00888001e21a90094e0a8000c
:10147c009760a800212c800080ff2f000080600066
:10148c003000b300202c880085e5a800212c8000ba
:10149c0070fe2f0000806000202c880085a5a8001d
:1014ac0086a5a80086e5a9008685a800112c8000d9
:1014bc000003200001007000102c880083e5a800b8
:1014cc00112c8000f07f2c0000806000102c880014
:1014dc00112c800080ff2f0000806000102c8800f1
:1014ec0089c5a80089e5a8008a05a8008a25a80056
:1014fc008a85a8008aa5a8008ac5a8008ae5a80044
:10150c008b05a8008b25a8008b45a8008b65a8002f
:10151c008de5a8008fc5a8000080fa000000060029
:020000040000fa
:10152c00000800000c000000800000000c08000007
:10153c0002000000820000000a0000000000000011
:020000040000fa
:020000040002f8
:04aff0003f0200001c
:020000040000fa
:020000040002f8
:04aff400807f00005a
:020000040000fa
:020000040002f8
:04aff8009f41000075
:020000040000fa
:020000040002f8
:04affc00bf39000059
:00000001FF
