:020000040000fa
:080000000002040000000000f2
:020000040000fa
:0400080004030000ed
:020000040000fa
:04000c0004030000e9
:020000040000fa
:0400100004030000e5
:020000040000fa
:0400140004030000e1
:020000040000fa
:0400180004030000dd
:020000040000fa
:04001c0004030000d9
:020000040000fa
:0400200004030000d5
:020000040000fa
:0400240004030000d1
:020000040000fa
:0400280004030000cd
:020000040000fa
:04002c0004030000c9
:020000040000fa
:0400300004030000c5
:020000040000fa
:0400340004030000c1
:020000040000fa
:0400380004030000bd
:020000040000fa
:04003c0004030000b9
:020000040000fa
:0400400004030000b5
:020000040000fa
:040044003403000081
:020000040000fa
:04004800520300005f
:020000040000fa
:04004c0004030000a9
:020000040000fa
:040050008c0400001c
:020000040000fa
:040054006c04000038
:020000040000fa
:04005800c2040000de
:020000040000fa
:04005c00820300001b
:020000040000fa
:040060000403000095
:020000040000fa
:040064000403000091
:020000040000fa
:04006800040300008d
:020000040000fa
:04006c000403000089
:020000040000fa
:040070000403000085
:020000040000fa
:040074001c04000068
:020000040000fa
:04007800040300007d
:020000040000fa
:04007c000403000079
:020000040000fa
:040080000403000075
:020000040000fa
:040084000403000071
:020000040000fa
:04008800040300006d
:020000040000fa
:04008c000403000069
:020000040000fa
:040090000403000065
:020000040000fa
:04009400fa0300006b
:020000040000fa
:04009800040300005d
:020000040000fa
:04009c000403000059
:020000040000fa
:0400a0000403000055
:020000040000fa
:0400a4000403000051
:020000040000fa
:0400a800040300004d
:020000040000fa
:0400ac000403000049
:020000040000fa
:0400b0000403000045
:020000040000fa
:0400b4000403000041
:020000040000fa
:0400b800040300003d
:020000040000fa
:0400bc000403000039
:020000040000fa
:0400c0000403000035
:020000040000fa
:0400c4000403000031
:020000040000fa
:0400c800040300002d
:020000040000fa
:0400cc000403000029
:020000040000fa
:0400d0000403000025
:020000040000fa
:0400d4000403000021
:020000040000fa
:0400d800040300001d
:020000040000fa
:0400dc000403000019
:020000040000fa
:0400e0000403000015
:020000040000fa
:0400e4000403000011
:020000040000fa
:0400e800040300000d
:020000040000fa
:0400ec000403000009
:020000040000fa
:0400f0000403000005
:020000040000fa
:0400f4000403000001
:020000040000fa
:0400f80004030000fd
:020000040000fa
:0400fc0004030000f9
:020000040000fa
:0401000004030000f4
:020000040000fa
:0401040004030000f0
:020000040000fa
:0401080004030000ec
:020000040000fa
:04010c0004030000e8
:020000040000fa
:0401100004030000e4
:020000040000fa
:0401140004030000e0
:020000040000fa
:0401180004030000dc
:020000040000fa
:04011c0004030000d8
:020000040000fa
:0401200004030000d4
:020000040000fa
:0401240004030000d0
:020000040000fa
:0401280004030000cc
:020000040000fa
:04012c0004030000c8
:020000040000fa
:0401300004030000c4
:020000040000fa
:0401340004030000c0
:020000040000fa
:0401380004030000bc
:020000040000fa
:04013c0004030000b8
:020000040000fa
:0401400004030000b4
:020000040000fa
:0401440004030000b0
:020000040000fa
:0401480004030000ac
:020000040000fa
:04014c0004030000a8
:020000040000fa
:0401500004030000a4
:020000040000fa
:0401540004030000a0
:020000040000fa
:04015800040300009c
:020000040000fa
:04015c000403000098
:020000040000fa
:040160000403000094
:020000040000fa
:040164000403000090
:020000040000fa
:04016800040300008c
:020000040000fa
:04016c000403000088
:020000040000fa
:040170000403000084
:020000040000fa
:040174000403000080
:020000040000fa
:04017800040300007c
:020000040000fa
:04017c000403000078
:020000040000fa
:040180000403000074
:020000040000fa
:040184000403000070
:020000040000fa
:04018800040300006c
:020000040000fa
:04018c000403000068
:020000040000fa
:040190000403000064
:020000040000fa
:040194000403000060
:020000040000fa
:04019800040300005c
:020000040000fa
:04019c000403000058
:020000040000fa
:0401a0000403000054
:020000040000fa
:0401a4000403000050
:020000040000fa
:0401a800040300004c
:020000040000fa
:0401ac000403000048
:020000040000fa
:0401b0000403000044
:020000040000fa
:0401b4000403000040
:020000040000fa
:0401b800040300003c
:020000040000fa
:0401bc000403000038
:020000040000fa
:0401c0000403000034
:020000040000fa
:0401c4000403000030
:020000040000fa
:0401c800040300002c
:020000040000fa
:0401cc000403000028
:020000040000fa
:0401d0000403000024
:020000040000fa
:0401d4000403000020
:020000040000fa
:0401d800040300001c
:020000040000fa
:0401dc000403000018
:020000040000fa
:0401e0000403000014
:020000040000fa
:0401e4000403000010
:020000040000fa
:0401e800040300000c
:020000040000fa
:0401ec000403000008
:020000040000fa
:0401f0000403000004
:020000040000fa
:0401f4000403000000
:020000040000fa
:0401f80004030000fc
:020000040000fa
:0401fc0004030000f8
:020000040000fa
:0402080004030000eb
:020000040000fa
:04020c0004030000e7
:020000040000fa
:0402100004030000e3
:020000040000fa
:0402140004030000df
:020000040000fa
:0402180004030000db
:020000040000fa
:04021c0004030000d7
:020000040000fa
:0402200004030000d3
:020000040000fa
:0402240004030000cf
:020000040000fa
:0402280004030000cb
:020000040000fa
:04022c0004030000c7
:020000040000fa
:0402300004030000c3
:020000040000fa
:0402340004030000bf
:020000040000fa
:0402380004030000bb
:020000040000fa
:04023c0004030000b7
:020000040000fa
:0402400004030000b3
:020000040000fa
:04024400340300007f
:020000040000fa
:04024800520300005d
:020000040000fa
:04024c0004030000a7
:020000040000fa
:040250008c0400001a
:020000040000fa
:040254006c04000036
:020000040000fa
:04025800c2040000dc
:020000040000fa
:04025c008203000019
:020000040000fa
:040260000403000093
:020000040000fa
:04026400040300008f
:020000040000fa
:04026800040300008b
:020000040000fa
:04026c000403000087
:020000040000fa
:040270000403000083
:020000040000fa
:040274001c04000066
:020000040000fa
:04027800040300007b
:020000040000fa
:04027c000403000077
:020000040000fa
:040280000403000073
:020000040000fa
:04028400040300006f
:020000040000fa
:04028800040300006b
:020000040000fa
:04028c000403000067
:020000040000fa
:040290000403000063
:020000040000fa
:04029400fa03000069
:020000040000fa
:04029800040300005b
:020000040000fa
:04029c000403000057
:020000040000fa
:0402a0000403000053
:020000040000fa
:0402a400040300004f
:020000040000fa
:0402a800040300004b
:020000040000fa
:0402ac000403000047
:020000040000fa
:0402b0000403000043
:020000040000fa
:0402b400040300003f
:020000040000fa
:0402b800040300003b
:020000040000fa
:0402bc000403000037
:020000040000fa
:0402c0000403000033
:020000040000fa
:0402c400040300002f
:020000040000fa
:0402c800040300002b
:020000040000fa
:0402cc000403000027
:020000040000fa
:0402d0000403000023
:020000040000fa
:0402d400040300001f
:020000040000fa
:0402d800040300001b
:020000040000fa
:0402dc000403000017
:020000040000fa
:0402e0000403000013
:020000040000fa
:0402e400040300000f
:020000040000fa
:0402e800040300000b
:020000040000fa
:0402ec000403000007
:020000040000fa
:0402f0000403000003
:020000040000fa
:0402f40004030000ff
:020000040000fa
:0402f80004030000fb
:020000040000fa
:0402fc0004030000f7
:020000040000fa
:0403000004030000f2
:020000040000fa
:0403040004030000ee
:020000040000fa
:0403080004030000ea
:020000040000fa
:04030c0004030000e6
:020000040000fa
:0403100004030000e2
:020000040000fa
:0403140004030000de
:020000040000fa
:0403180004030000da
:020000040000fa
:04031c0004030000d6
:020000040000fa
:0403200004030000d2
:020000040000fa
:0403240004030000ce
:020000040000fa
:0403280004030000ca
:020000040000fa
:04032c0004030000c6
:020000040000fa
:0403300004030000c2
:020000040000fa
:0403340004030000be
:020000040000fa
:0403380004030000ba
:020000040000fa
:04033c0004030000b6
:020000040000fa
:0403400004030000b2
:020000040000fa
:0403440004030000ae
:020000040000fa
:0403480004030000aa
:020000040000fa
:04034c0004030000a6
:020000040000fa
:0403500004030000a2
:020000040000fa
:04035400040300009e
:020000040000fa
:04035800040300009a
:020000040000fa
:04035c000403000096
:020000040000fa
:040360000403000092
:020000040000fa
:04036400040300008e
:020000040000fa
:04036800040300008a
:020000040000fa
:04036c000403000086
:020000040000fa
:040370000403000082
:020000040000fa
:04037400040300007e
:020000040000fa
:04037800040300007a
:020000040000fa
:04037c000403000076
:020000040000fa
:040380000403000072
:020000040000fa
:04038400040300006e
:020000040000fa
:04038800040300006a
:020000040000fa
:04038c000403000066
:020000040000fa
:040390000403000062
:020000040000fa
:04039400040300005e
:020000040000fa
:04039800040300005a
:020000040000fa
:04039c000403000056
:020000040000fa
:0403a0000403000052
:020000040000fa
:0403a400040300004e
:020000040000fa
:0403a800040300004a
:020000040000fa
:0403ac000403000046
:020000040000fa
:0403b0000403000042
:020000040000fa
:0403b400040300003e
:020000040000fa
:0403b800040300003a
:020000040000fa
:0403bc000403000036
:020000040000fa
:0403c0000403000032
:020000040000fa
:0403c400040300002e
:020000040000fa
:0403c800040300002a
:020000040000fa
:0403cc000403000026
:020000040000fa
:0403d0000403000022
:020000040000fa
:0403d400040300001e
:020000040000fa
:0403d800040300001a
:020000040000fa
:0403dc000403000016
:020000040000fa
:0403e0000403000012
:020000040000fa
:0403e400040300000e
:020000040000fa
:0403e800040300000a
:020000040000fa
:0403ec000403000006
:020000040000fa
:0403f0000403000002
:020000040000fa
:0403f40004030000fe
:020000040000fa
:0403f80004030000fa
:020000040000fa
:0403fc0004030000f6
:020000040000fa
:10040000efc120000e7f22000e01880000000000d6
:10041000000020000000e000020032000001200087
:1004200020028800140007007c0107000000e000a3
:1004300003003a0080c820000100200002003700bd
:100440000000200001002000810f70000100320038
:1004500014000700000020000000e000020032004d
:100460000000020000000000300502000000000053
:100470000040da000000fe004440a90020002000f7
:100480000000e0000300320010002000900188000e
:100490004440a800000006008a1f78008b1f7800e7
:1004a00000000600a1028800800478000000eb0034
:1004b0001f003700e284440054a0b4009905ba003c
:1004c000e284440054a0b4009906ba00e2844400d7
:1004d00054a0b4000006eb00476fde00fd07b20039
:1004e000ae018800636ce10003003a00eaff0700f8
:1004f0000000eb000e003700606ce10008003a00dd
:10050000004deb000a05e800020039003420ec0041
:100510000af0a0008b05e900f9ff3e000400370057
:100520006168e100010032000086eb000b0007006b
:1005300019c7ba001905ba000e04e00003003a001a
:100540000a00e000dbff3a0000000600fe07b200f0
:10055000ae0288008a047800f5ff37000cd0a300b3
:10056000e20f4d001c00390089027800354dba00b9
:100570000a05e800020039003420ec000af0a0006f
:100580008b05e9000f003200254dba000a05e8008e
:10059000020039003420ec000af0a0008b05e900cd
:1005a000080032000c00e0000600320015cdba0051
:1005b0000a05e800020039003420ec000af0a0002f
:1005c0008b05e9008984e80054a0b4000b00e0002a
:1005d000e2ff3a00000006009902ba00055d7800cb
:1005e0008b05e900f7ff3200c82ade00055d7800c0
:1005f0008b05e900f3ff32000c00e000f1ff320050
:1006000019ddba00eeff3700809fbe003200f8000f
:100610003400f80010002000a00188001000200025
:10062000900188000000fa00901680004f00de0064
:10063000004078000004a200614060000080fb00e0
:100640004f00dd00a116800001f0a1000100700044
:10065000a01688000080fa003400f9003200f9008a
:100660004f00be00004006003200f8003400f800e1
:10067000881f780018002000a801880018002000ba
:10068000980188004f0478000000fa0084e0a90077
:10069000d582a9000080fa003400f9003200f90088
:1006a00000400600809fbe003200f8003400f800d1
:1006b00010002000a0018800100020009001880098
:1006c0000000fa0084e0a90009c8bf000040e8006b
:1006d00009e8b700918020009140780020c3b30062
:1006e00080cf500002003a008580a8000968ef0022
:1006f0000080fa003400f9003200f9004f00be001b
:10070000004006003600f800809fbe00829fbe00b9
:10071000849fbe00869fbe003200f8003400f800bf
:1007200010002000a0018800100020009001880027
:100730000400fa0085a0a9001dc5a800001a8000c9
:1007400050408800504080008000eb00008fbe00c9
:100750000e80e80090007800803e20000088b900fc
:10076000000178001e0078006000b90000007800e9
:10077000000141009e007800803e20000008b80083
:100780000101410082007800525520000300200042
:10079000a3000700008fbe001e00780050408800b4
:1007a000504080004800de0080407800a08120009a
:1007b000014878005040800080407800b0812000df
:1007c000014878001dc5a9008b27a800d582a80084
:1007d0000080fa003400f9003200f9004f03be0037
:1007e0004f02be004f01be004f00be003600f900b0
:1007f00000400600801f78003200f8003400f80046
:1008000010002000a0018800100020009001880046
:100810000000fa008760a900004080000000e800a6
:10082000004088000080fa003400f9003200f9002e
:100830004f00780000400600809fbe003200f800a4
:100840003400f80010002000a001880010002000f3
:10085000900188000000fa0010002000204088006d
:1008600050168000680060000000e00004003a00bc
:1008700010002000304088000040800010408800b8
:10088000d116800000102000008060000000e00011
:1008900002003a000040800010408800511680009d
:1008a00000082000008060000000e00004003a0022
:1008b00010c0b30008e8b700004080001040880076
:1008c0008660a9000080fa003400f9003200f900c7
:1008d0004f00be0000400600801f78003200f80084
:1008e0003400f80010002000a00188001000200053
:1008f000900188000000fa008560a9003011800096
:10090000804088000080fa003400f9003200f900cd
:100910004f00780000400600809fbe003200f800c3
:100920003400f80010002000a00188001000200012
:10093000900188000000fa008540a90040c2a9008b
:10094000e4a2a800901680004f00de00004078006e
:100950000004a200614060000080fb004f00dd0049
:10096000a116800001f0a10001007000a01688000f
:100970000080fa003400f9003200f9004f00be0098
:1009800000400600809fbe003200f8003400f800ee
:1009900010002000a00188001000200090018800b5
:1009a0000000fa0070408000e30f500003003600a2
:1009b0000e28ef008580a9001300370071408000e9
:1009c0008081200001004000104078000080fb0082
:1009d00020118800704080000000e800704088000e
:1009e00071408000808120000100400010407800ac
:1009f0000080fb0020118800704080000000e800ab
:100a0000704088008580a9000080fa003400f90059
:100a10003200f9004f00be00004006000000050053
:100a20006022b800060220000000d0008180d200c1
:100a30000482d2008582d2000000a000020252008f
:100a400083825a00030031000202420083824a007e
:100a50000000a1000603e900f3ff3a0000000600d1
:020000040000fa
:100a60000000fa006d02070020a12700100888008e
:100a7000204e200060088800f07c2000d00888000c
:100a8000f0f92000700888008081200080c0eb0011
:100a9000014878009081200080c0eb000148780078
:100aa00005003700000000000300370000000000d0
:100ab000010037000000000050408000ee010700f8
:100ac00030408000e10f50001c003a0001408000df
:100ad000104080000080500091408000810f500045
:100ae0000a00360050168000680060000000e00038
:100af00006003a008580a8000628ef000428ef00d1
:100b000050408000dc0107000c00370001408000ed
:100b1000104080000080500091408000810f500004
:100b20000600360050168000680060000000e000fb
:100b3000020032000628ef000428ef0008c8bf00ba
:100b4000e14f5000d7ff3a00014080001040800084
:100b50000080500091408000810f50001600360048
:100b60005116800000082000008060000000e000b6
:100b700011003a000868ef000428ef0000000000b0
:100b800000128000620060000000e000fcff3a00fc
:100b9000e4a2a900300024004012880000000000f8
:100ba00000128000610060000000e000fcff3200e5
:100bb00000000000c0ff37000140800010408000ae
:100bc0000080500091408000810f5000b7ff360038
:100bd0005116800000082000008060000000e00046
:100be000b4ff32000868ef000428ef00b2ff3700be
:100bf0000400fa00000f78000e80e8000108780079
:100c00001e007800e10f500064003a000e80e800fa
:100c1000100078008000eb0092002000030020000c
:100c2000820f5000838f58005b003e00006001007f
:100c30000900370010003700170037001e0037008a
:100c4000250037002c003700330037003a0037000a
:100c50004100370048003700aac5a800a2c5a80077
:100c6000aae5a80092c5a8009ae5a800a2e5a800f8
:100c70009ac5a90049003700aac5a900a2c5a800c5
:100c8000aae5a80092c5a9009ae5a900a2e5a900d5
:100c90009ac5a90041003700aac5a800a2c5a800ae
:100ca000aae5a90092c5a8009ae5a800a2e5a900b6
:100cb0009ac5a80039003700aac5a800a2c5a80097
:100cc000aae5a80092c5a8009ae5a900a2e5a90096
:100cd0009ac5a80031003700aac5a900a2c5a8007e
:100ce000aae5a80092c5a9009ae5a900a2e5a80076
:100cf0009ac5a80029003700aac5a800a2c5a90066
:100d0000aae5a80092c5a8009ae5a900a2e5a80056
:100d10009ac5a80021003700aac5a800a2c5a9004d
:100d2000aae5a80092c5a8009ae5a800a2e5a80037
:100d30009ac5a80019003700aac5a800a2c5a80036
:100d4000aae5a80092c5a9009ae5a900a2e5a90014
:100d50009ac5a90011003700aac5a800a2c5a8001d
:100d6000aae5a80092c5a8009ae5a800a2e5a800f7
:100d70009ac5a80009003700aac5a800a2c5a80006
:100d8000aae5a80092c5a8009ae5a900a2e5a800d6
:100d90009ac5a80001003700000000001e0078007e
:100da000e20f500064003a000e80e8001000780066
:100db0008000eb009200200003002000820f500012
:100dc000838f58005b003e0000600100090037007f
:100dd00010003700170037001e00370025003700cd
:100de0002c003700330037003a003700410037004d
:100df00048003700aa85a800a285a800aaa5a800d7
:100e00009285a8009aa5a800a2a5a8009a85a90085
:100e100049003700aa85a900a285a800aaa5a800b4
:100e20009285a9009aa5a900a2a5a9009a85a90062
:100e300041003700aa85a800a285a800aaa5a9009c
:100e40009285a8009aa5a800a2a5a9009a85a80045
:100e500039003700aa85a800a285a800aaa5a80085
:100e60009285a8009aa5a900a2a5a9009a85a80024
:100e700031003700aa85a900a285a800aaa5a8006c
:100e80009285a9009aa5a900a2a5a8009a85a80004
:100e900029003700aa85a800a285a900aaa5a80054
:100ea0009285a8009aa5a900a2a5a8009a85a800e5
:100eb00021003700aa85a800a285a900aaa5a8003c
:100ec0009285a8009aa5a800a2a5a8009a85a800c6
:100ed00019003700aa85a800a285a800aaa5a80025
:100ee0009285a9009aa5a900a2a5a9009a85a900a2
:100ef00011003700aa85a800a285a800aaa5a8000d
:100f00009285a8009aa5a800a2a5a8009a85a80085
:100f100009003700aa85a800a285a800aaa5a800f4
:100f20009285a8009aa5a900a2a5a8009a85a80064
:100f300001003700000000001e007800e30f5000a1
:100f400064003a000e80e800100078008000eb009a
:100f50009200200003002000820f5000838f580071
:100f60005b003e0000600100090037001000370000
:100f7000170037001e003700250037002c0037000f
:100f8000330037003a00370041003700480037008f
:100f9000aa05a800a205a800aa25a8009205a800f5
:100fa0009a25a800a225a8009a05a90049003700a3
:100fb000aa05a900a205a800aa25a8009205a900d3
:100fc0009a25a900a225a9009a05a9004100370089
:100fd000aa05a800a205a800aa25a9009205a800b4
:100fe0009a25a800a225a9009a05a8003900370073
:100ff000aa05a800a205a800aa25a8009205a80095
:101000009a25a900a225a9009a05a8003100370059
:10101000aa05a900a205a800aa25a8009205a90072
:101020009a25a900a225a8009a05a8002900370042
:10103000aa05a800a205a900aa25a8009205a80053
:101040009a25a900a225a8009a05a800210037002a
:10105000aa05a800a205a900aa25a8009205a80033
:101060009a25a800a225a8009a05a8001900370013
:10107000aa05a800a205a800aa25a8009205a90013
:101080009a25a900a225a9009a05a90011003700f8
:10109000aa05a800a205a800aa25a8009205a800f4
:1010a0009a25a800a225a8009a05a80009003700e3
:1010b000aa05a800a205a800aa25a8009205a800d4
:1010c0009a25a900a225a8009a05a80001003700ca
:1010d000000000001e007800e40f500064003a0099
:1010e0000e80e800100078008000eb0092002000e5
:1010f00003002000820f5000838f58005b003e00e9
:1011000000600100090037001000370017003700a9
:101110001e003700250037002c0037003300370051
:101120003a0037004100370048003700a9c5a80041
:10113000a1c5a800a9e5a80091c5a80099e5a80047
:10114000a1e5a80099c5a90049003700a9c5a900d3
:10115000a1c5a800a9e5a80091c5a90099e5a90025
:10116000a1e5a90099c5a90041003700a9c5a800bb
:10117000a1c5a800a9e5a90091c5a80099e5a80006
:10118000a1e5a90099c5a80039003700a9c5a800a4
:10119000a1c5a800a9e5a80091c5a80099e5a900e6
:1011a000a1e5a90099c5a80031003700a9c5a9008b
:1011b000a1c5a800a9e5a80091c5a90099e5a900c5
:1011c000a1e5a80099c5a80029003700a9c5a80075
:1011d000a1c5a900a9e5a80091c5a80099e5a900a5
:1011e000a1e5a80099c5a80021003700a9c5a8005d
:1011f000a1c5a900a9e5a80091c5a80099e5a80086
:10120000a1e5a80099c5a80019003700a9c5a80044
:10121000a1c5a800a9e5a80091c5a90099e5a90064
:10122000a1e5a90099c5a90011003700a9c5a8002a
:10123000a1c5a800a9e5a80091c5a80099e5a80046
:10124000a1e5a80099c5a80009003700a9c5a80014
:10125000a1c5a800a9e5a80091c5a80099e5a90025
:10126000a1e5a80099c5a800010037000000000012
:101270000080fa00000006000c00fa00e8004700b9
:10128000800878006800470090007800803e2000c9
:1012900000017800110009008280d8008000fd0064
:1012a000e80047009100780000805000c300de0095
:1012b000500c22000008b8004408de00000f78003f
:1012c0009e007800803e20000088b9000000780071
:1012d000e800470091007800808050005107980096
:1012e0006800470010017800400620008001780067
:1012f000110009000381d8008000fd00de0090008d
:1013000000805000c200de00b04721000008b80095
:101310008100d1000e80e800010878009e0078006e
:10132000803e20000088b90000007800e8004700f7
:1013300091007800008150000e80e8009000780055
:10134000400620000088b9000000780080015100ac
:101350006800470010017800d0cc2c000010b800c5
:101360004308de006a00b900000078000000510068
:1013700080805100d0cc2c000008b800c308de00eb
:1013800064004700010878009e007800803e20003d
:101390000088b90000007800e8004700910078005c
:1013a000008150000e80e800900078004006200088
:1013b0000088b90000007800000151006400470077
:1013c000100078006a00b900000078008000510029
:1013d00066004700010878009e0078001000200099
:1013e00003fe07000e80e800900078002000200037
:1013f000fffd0700640047009000780030002000e7
:10140000fbfd0700660047009000780040002000c8
:10141000f7fd07000080fa00000006000000fa0057
:10142000313a8000f08f2f00008060000080a00023
:10143000303a8800313a8000f0f32f0000806000dd
:10144000303a8800e244a900e2e4a900e704a900d8
:10145000e264a900e384a900eaa4a900e224a800a8
:10146000e2c4a800e204a800e284a900e8a4a9005c
:10147000c842a900d182a900c8e2a800d1e2a9000f
:10148000d902a800c862a800c982a900c822a80081
:10149000c8c2a800c882a900e0a2a900c802a8008a
:1014a000cc42a900d582a900d5e2a900cd82a9002d
:1014b000e4a2a800ce42a800413a800000fc2f0020
:1014c00000806000403a88008660a9009660a8000d
:1014d0006520a80068a0a80062a0a8006ea0a800cf
:1014e00005e1a80021088000000320000100700031
:1014f000200888000421a9000441a90004c1a90012
:1015000011e1a80081088000f0fc2f00008060003d
:101510000050a000800888001021a90013e1a80055
:1015200091088000000320000100700090088800ee
:101530001221a9001fe1a800f1088000f0fc2f0093
:10154000008060000040a000f00888001e21a90073
:1015500094e0a8009760a800212c800080ff2f0055
:10156000008060003000b300202c880085e5a800d2
:10157000212c800070fe2f0000806000202c88004d
:1015800085a5a80086a5a80086e5a9008685a800ef
:10159000112c80000003200001007000102c880036
:1015a00083e5a800112c8000f07f2c0000806000f3
:1015b000102c8800112c800080ff2f00008060001c
:1015c000102c880089c5a80089e5a8008a05a80014
:1015d0008a25a8008a85a8008aa5a8008ac5a8002f
:1015e0008ae5a8008b05a8008b25a8008b45a800dc
:1015f0008b65a8008de5a8008fc5a80041e4a80070
:1016000041a4a8004184a9004164a9004104a900a3
:1016100001228000c0ff2f00008060000010a000a9
:1016200000228800cb82a80081e3a8008003a900e3
:101630008803a9008943a9008923a800411c8000d0
:10164000f0f32f00008060000060a000401c8800c4
:101650008823a900411c800030ff2f00008060001b
:101660000020a000401c8800113a8000f00b2000f0
:1016700000816000600420007105200023742000b8
:1016800080497800814978008249780021358000be
:1016900000fc2f00008060001001b300203588009e
:1016a0007136800000fc2f00008060003000b30025
:1016b00070368800e136800000fc2f00008060005a
:1016c0007000b300e0368800103a80000001780016
:1016d0000260a00060042000710520002374200037
:1016e00080497800814978008249780020022000f2
:1016f000401188002062a8002002a900011180008a
:1017000090ff2f00008060000011880021e2a800f7
:1017100011118000f0f32f00008060000070a00025
:101720001011880023a2a90023e2a8002342a800e8
:101730009560a8009580a8008580a9000005a800f4
:101740000345a80011288000f0ff230000806000fe
:10175000102888000385a90005e5a90010c0b30082
:1017600004e5b7000505a80001e5a800e128800010
:10177000f00f2e00808060000050200001007000fb
:10178000e02888000000000050288000620060000f
:101790000000e000fcff3200f128800000fe2f0076
:1017a00000806000f02888001fe5a900f128800073
:1017b000f0ff29000080600000d0a000f028880021
:1017c000e128800000fc2f0000806000e0288800f5
:1017d000e1288000f00f2e00808060000050200083
:1017e00001007000e02888001dc5a8001da5a90003
:1017f00001c3a90001e3a8000118800000f82f0030
:1018000000806000001888000805a90095a0a800c5
:1018100085a0a9001de5a80000c5a80000000000e3
:1018200050288000620060000000e000fcff3200f1
:101830001dc5a900113a8000f00b20000081600056
:101840006004200071052000237420008049780086
:10185000814978008249780041358000f00f2c00e2
:101860008080600000202100010070004035880069
:101870009136800000fc2f00008060000030a00046
:1018800090368800103a8000000178000260a000c5
:101890006004200071052000237420008049780036
:1018a000814978008249780042a2a8004342a800fa
:1018b0004302a90042c2a90011128000c0ff2f00fc
:1018c000008060000000a00010128800111280004b
:1018d00030fe2f00008060008001b30010128800ed
:1018e00042e2a9008540a9009540a80001128000ad
:1018f00030fe2f00008060004001b300001288001d
:1019000041e2a80040c2a9000080fa0000000600e1
:020000040000fa
:101910001e0a00000002000082000000010000001a
:1019200000000000000000000000000000000000b7
:1019300000000000000000000000000000000000a7
:101940000000000000000000000000000000000097
:101950000000000000000000000000000000000087
:101bc0000000000000000000140800000a020000ed
:101bd00080000000000800001000000080000000ed
:101be0001008000004000000820000007b000400d8
:081bf0000000000000000000ed
:020000040000fa
:020000040002f8
:04aff0003f0200001c
:020000040000fa
:020000040002f8
:04aff400807f00005a
:020000040000fa
:020000040002f8
:04aff8009f41000075
:020000040000fa
:020000040002f8
:04affc00bf39000059
:00000001FF
