:020000040000fa
:080000000002040000000000f2
:020000040000fa
:0400080004030000ed
:020000040000fa
:04000c0004030000e9
:020000040000fa
:0400100004030000e5
:020000040000fa
:0400140004030000e1
:020000040000fa
:0400180004030000dd
:020000040000fa
:04001c0004030000d9
:020000040000fa
:0400200004030000d5
:020000040000fa
:0400240004030000d1
:020000040000fa
:0400280004030000cd
:020000040000fa
:04002c0004030000c9
:020000040000fa
:0400300004030000c5
:020000040000fa
:0400340004030000c1
:020000040000fa
:0400380004030000bd
:020000040000fa
:04003c0004030000b9
:020000040000fa
:0400400004030000b5
:020000040000fa
:040044003403000081
:020000040000fa
:0400480004030000ad
:020000040000fa
:04004c0004030000a9
:020000040000fa
:0400500004030000a5
:020000040000fa
:040054005c04000048
:020000040000fa
:040058007c04000024
:020000040000fa
:04005c00500300004d
:020000040000fa
:040060000403000095
:020000040000fa
:040064000403000091
:020000040000fa
:04006800040300008d
:020000040000fa
:04006c000403000089
:020000040000fa
:040070000403000085
:020000040000fa
:04007400060400007e
:020000040000fa
:04007800040300007d
:020000040000fa
:04007c000403000079
:020000040000fa
:040080000403000075
:020000040000fa
:040084000403000071
:020000040000fa
:04008800040300006d
:020000040000fa
:04008c000403000069
:020000040000fa
:040090000403000065
:020000040000fa
:04009400e403000081
:020000040000fa
:04009800040300005d
:020000040000fa
:04009c000403000059
:020000040000fa
:0400a0000403000055
:020000040000fa
:0400a4000403000051
:020000040000fa
:0400a800040300004d
:020000040000fa
:0400ac000403000049
:020000040000fa
:0400b0000403000045
:020000040000fa
:0400b4000403000041
:020000040000fa
:0400b800040300003d
:020000040000fa
:0400bc000403000039
:020000040000fa
:0400c0000403000035
:020000040000fa
:0400c4000403000031
:020000040000fa
:0400c800040300002d
:020000040000fa
:0400cc000403000029
:020000040000fa
:0400d0000403000025
:020000040000fa
:0400d4000403000021
:020000040000fa
:0400d800040300001d
:020000040000fa
:0400dc000403000019
:020000040000fa
:0400e0000403000015
:020000040000fa
:0400e4000403000011
:020000040000fa
:0400e800040300000d
:020000040000fa
:0400ec000403000009
:020000040000fa
:0400f0000403000005
:020000040000fa
:0400f4000403000001
:020000040000fa
:0400f80004030000fd
:020000040000fa
:0400fc0004030000f9
:020000040000fa
:0401000004030000f4
:020000040000fa
:0401040004030000f0
:020000040000fa
:0401080004030000ec
:020000040000fa
:04010c0004030000e8
:020000040000fa
:0401100004030000e4
:020000040000fa
:0401140004030000e0
:020000040000fa
:0401180004030000dc
:020000040000fa
:04011c0004030000d8
:020000040000fa
:0401200004030000d4
:020000040000fa
:0401240004030000d0
:020000040000fa
:0401280004030000cc
:020000040000fa
:04012c0004030000c8
:020000040000fa
:0401300004030000c4
:020000040000fa
:0401340004030000c0
:020000040000fa
:0401380004030000bc
:020000040000fa
:04013c0004030000b8
:020000040000fa
:0401400004030000b4
:020000040000fa
:0401440004030000b0
:020000040000fa
:0401480004030000ac
:020000040000fa
:04014c0004030000a8
:020000040000fa
:0401500004030000a4
:020000040000fa
:0401540004030000a0
:020000040000fa
:04015800040300009c
:020000040000fa
:04015c000403000098
:020000040000fa
:040160000403000094
:020000040000fa
:040164000403000090
:020000040000fa
:04016800040300008c
:020000040000fa
:04016c000403000088
:020000040000fa
:040170000403000084
:020000040000fa
:040174000403000080
:020000040000fa
:04017800040300007c
:020000040000fa
:04017c000403000078
:020000040000fa
:040180000403000074
:020000040000fa
:040184000403000070
:020000040000fa
:04018800040300006c
:020000040000fa
:04018c000403000068
:020000040000fa
:040190000403000064
:020000040000fa
:040194000403000060
:020000040000fa
:04019800040300005c
:020000040000fa
:04019c000403000058
:020000040000fa
:0401a0000403000054
:020000040000fa
:0401a4000403000050
:020000040000fa
:0401a800040300004c
:020000040000fa
:0401ac000403000048
:020000040000fa
:0401b0000403000044
:020000040000fa
:0401b4000403000040
:020000040000fa
:0401b800040300003c
:020000040000fa
:0401bc000403000038
:020000040000fa
:0401c0000403000034
:020000040000fa
:0401c4000403000030
:020000040000fa
:0401c800040300002c
:020000040000fa
:0401cc000403000028
:020000040000fa
:0401d0000403000024
:020000040000fa
:0401d4000403000020
:020000040000fa
:0401d800040300001c
:020000040000fa
:0401dc000403000018
:020000040000fa
:0401e0000403000014
:020000040000fa
:0401e4000403000010
:020000040000fa
:0401e800040300000c
:020000040000fa
:0401ec000403000008
:020000040000fa
:0401f0000403000004
:020000040000fa
:0401f4000403000000
:020000040000fa
:0401f80004030000fc
:020000040000fa
:0401fc0004030000f8
:020000040000fa
:0402080004030000eb
:020000040000fa
:04020c0004030000e7
:020000040000fa
:0402100004030000e3
:020000040000fa
:0402140004030000df
:020000040000fa
:0402180004030000db
:020000040000fa
:04021c0004030000d7
:020000040000fa
:0402200004030000d3
:020000040000fa
:0402240004030000cf
:020000040000fa
:0402280004030000cb
:020000040000fa
:04022c0004030000c7
:020000040000fa
:0402300004030000c3
:020000040000fa
:0402340004030000bf
:020000040000fa
:0402380004030000bb
:020000040000fa
:04023c0004030000b7
:020000040000fa
:0402400004030000b3
:020000040000fa
:04024400340300007f
:020000040000fa
:0402480004030000ab
:020000040000fa
:04024c0004030000a7
:020000040000fa
:0402500004030000a3
:020000040000fa
:040254005c04000046
:020000040000fa
:040258007c04000022
:020000040000fa
:04025c00500300004b
:020000040000fa
:040260000403000093
:020000040000fa
:04026400040300008f
:020000040000fa
:04026800040300008b
:020000040000fa
:04026c000403000087
:020000040000fa
:040270000403000083
:020000040000fa
:04027400060400007c
:020000040000fa
:04027800040300007b
:020000040000fa
:04027c000403000077
:020000040000fa
:040280000403000073
:020000040000fa
:04028400040300006f
:020000040000fa
:04028800040300006b
:020000040000fa
:04028c000403000067
:020000040000fa
:040290000403000063
:020000040000fa
:04029400e40300007f
:020000040000fa
:04029800040300005b
:020000040000fa
:04029c000403000057
:020000040000fa
:0402a0000403000053
:020000040000fa
:0402a400040300004f
:020000040000fa
:0402a800040300004b
:020000040000fa
:0402ac000403000047
:020000040000fa
:0402b0000403000043
:020000040000fa
:0402b400040300003f
:020000040000fa
:0402b800040300003b
:020000040000fa
:0402bc000403000037
:020000040000fa
:0402c0000403000033
:020000040000fa
:0402c400040300002f
:020000040000fa
:0402c800040300002b
:020000040000fa
:0402cc000403000027
:020000040000fa
:0402d0000403000023
:020000040000fa
:0402d400040300001f
:020000040000fa
:0402d800040300001b
:020000040000fa
:0402dc000403000017
:020000040000fa
:0402e0000403000013
:020000040000fa
:0402e400040300000f
:020000040000fa
:0402e800040300000b
:020000040000fa
:0402ec000403000007
:020000040000fa
:0402f0000403000003
:020000040000fa
:0402f40004030000ff
:020000040000fa
:0402f80004030000fb
:020000040000fa
:0402fc0004030000f7
:020000040000fa
:0403000004030000f2
:020000040000fa
:0403040004030000ee
:020000040000fa
:0403080004030000ea
:020000040000fa
:04030c0004030000e6
:020000040000fa
:0403100004030000e2
:020000040000fa
:0403140004030000de
:020000040000fa
:0403180004030000da
:020000040000fa
:04031c0004030000d6
:020000040000fa
:0403200004030000d2
:020000040000fa
:0403240004030000ce
:020000040000fa
:0403280004030000ca
:020000040000fa
:04032c0004030000c6
:020000040000fa
:0403300004030000c2
:020000040000fa
:0403340004030000be
:020000040000fa
:0403380004030000ba
:020000040000fa
:04033c0004030000b6
:020000040000fa
:0403400004030000b2
:020000040000fa
:0403440004030000ae
:020000040000fa
:0403480004030000aa
:020000040000fa
:04034c0004030000a6
:020000040000fa
:0403500004030000a2
:020000040000fa
:04035400040300009e
:020000040000fa
:04035800040300009a
:020000040000fa
:04035c000403000096
:020000040000fa
:040360000403000092
:020000040000fa
:04036400040300008e
:020000040000fa
:04036800040300008a
:020000040000fa
:04036c000403000086
:020000040000fa
:040370000403000082
:020000040000fa
:04037400040300007e
:020000040000fa
:04037800040300007a
:020000040000fa
:04037c000403000076
:020000040000fa
:040380000403000072
:020000040000fa
:04038400040300006e
:020000040000fa
:04038800040300006a
:020000040000fa
:04038c000403000066
:020000040000fa
:040390000403000062
:020000040000fa
:04039400040300005e
:020000040000fa
:04039800040300005a
:020000040000fa
:04039c000403000056
:020000040000fa
:0403a0000403000052
:020000040000fa
:0403a400040300004e
:020000040000fa
:0403a800040300004a
:020000040000fa
:0403ac000403000046
:020000040000fa
:0403b0000403000042
:020000040000fa
:0403b400040300003e
:020000040000fa
:0403b800040300003a
:020000040000fa
:0403bc000403000036
:020000040000fa
:0403c0000403000032
:020000040000fa
:0403c400040300002e
:020000040000fa
:0403c800040300002a
:020000040000fa
:0403cc000403000026
:020000040000fa
:0403d0000403000022
:020000040000fa
:0403d400040300001e
:020000040000fa
:0403d800040300001a
:020000040000fa
:0403dc000403000016
:020000040000fa
:0403e0000403000012
:020000040000fa
:0403e400040300000e
:020000040000fa
:0403e800040300000a
:020000040000fa
:0403ec000403000006
:020000040000fa
:0403f0000403000002
:020000040000fa
:0403f40004030000fe
:020000040000fa
:0403f80004030000fa
:020000040000fa
:0403fc0004030000f6
:020000040000fa
:100400008fc120000e7f22000e0188000000000036
:10041000000020000000e000020032000001200087
:100420002002880014000700410107000000e000de
:1004300003003a00e0ba200001002000020037006b
:100440000000200001002000810f70000100320038
:1004500014000700000020000000e000020032004d
:100460000000020000000000ba04020000000000ca
:100470000040da000000fe004440a90020002000f7
:100480000000e0000300320010002000900188000e
:100490004440a800000006008a1f78008b1f7800e7
:1004a00000000600a1028800800478000000eb0034
:1004b0001f003700e284440054a0b4009905ba003c
:1004c000e284440054a0b4009906ba00e2844400d7
:1004d00054a0b4000006eb00476fde00fd07b20039
:1004e000ae018800636ce10003003a00eaff0700f8
:1004f0000000eb000e003700606ce10008003a00dd
:10050000004deb000a05e800020039003420ec0041
:100510000af0a0008b05e900f9ff3e000400370057
:100520006168e100010032000086eb000b0007006b
:1005300019c7ba001905ba000e04e00003003a001a
:100540000a00e000dbff3a0000000600fe07b200f0
:10055000ae0288008a047800f5ff37000cd0a300b3
:10056000e20f4d001c00390089027800354dba00b9
:100570000a05e800020039003420ec000af0a0006f
:100580008b05e9000f003200254dba000a05e8008e
:10059000020039003420ec000af0a0008b05e900cd
:1005a000080032000c00e0000600320015cdba0051
:1005b0000a05e800020039003420ec000af0a0002f
:1005c0008b05e9008984e80054a0b4000b00e0002a
:1005d000e2ff3a00000006009902ba00055d7800cb
:1005e0008b05e900f7ff3200c82ade00055d7800c0
:1005f0008b05e900f3ff32000c00e000f1ff320050
:1006000019ddba00eeff3700809fbe003200f8000f
:100610003400f80010002000a00188001000200025
:10062000900188000000fa00901680004f00de0064
:10063000004078000004a200614060000080fb00e0
:100640004f00dd00a116800001f0a1000100700044
:10065000a01688000080fa003400f9003200f9008a
:100660004f00be00004006003200f8003400f800e1
:10067000881f780018002000a801880018002000ba
:10068000980188004f0478000000fa0084e0a90077
:100690000080fa003400f9003200f9000040060042
:1006a0003600f800809fbe00829fbe00849fbe007f
:1006b000869fbe003200f8003400f80010002000d1
:1006c000a001880010002000900188000400fa00ba
:1006d00085a0a9001dc5a800001a80006040880000
:1006e000101a800070408800604080008000eb009d
:1006f000008fbe000e80e80090007800803e200051
:100700000088b900000178001e0078006000b90080
:1007100000007800000141009e007800803e20002b
:100720000008b80001014100820078005255200005
:10073000030020007f000700008fbe001e0078002d
:1007400060408800704080008000eb00008fbe0099
:100750000e80e80090007800803e20000088b900fc
:10076000000178001e0078006000b90000007800e9
:10077000000141009e007800803e20000008b80083
:100780000101410082007800525520000300200042
:1007900068000700008fbe001e00780070408800cf
:1007a0001dc5a9000080fa003400f9003200f900ec
:1007b0004f03be004f02be004f01be004f00be00ff
:1007c0003600f90000400600801f78003200f80073
:1007d0003400f80010002000a00188001000200064
:1007e000900188000000fa008760a90000408000a6
:1007f0000000e800004088000080fa003400f900a2
:100800003200f9004f00780000400600809fbe00d3
:100810003200f8003400f80010002000a001880029
:1008200010002000900188000000fa001000200055
:100830002040880050168000680060000000e00042
:1008400004003a0010002000304088000040800082
:1008500010408800d1168000001020000080600049
:100860000000e00004003a000040800010408800d2
:100870001dc5a9000868ef0051168000000820007f
:10088000008060000000e00005003a0000408000a9
:10089000104088001dc5a90010c0b30008e8b700cb
:1008a0008660a9000080fa003400f9003200f900e7
:1008b0004f00be0000400600801f78003200f800a4
:1008c0003400f80010002000a00188001000200073
:1008d000900188000000fa008560a90030118000b6
:1008e000804088000080fa003400f9003200f900ee
:1008f0004f007800004006003200f8003400f80095
:10090000881f780018002000a80188001800200027
:10091000980188004f0478000000fa008580a90043
:100920000080fa003400f9003200f90000400600af
:10093000000005006022b800060220000000d00080
:100940008180d2000482d2008582d2000000a00003
:100950000202520083825a00030031000202420068
:1009600083824a000000a1000603e900f3ff3a0079
:04097000000006007d
:020000040000fa
:100974000600fa008102070002000900001feb00d4
:100984006e00b10020a1270010088800701a26000c
:1009940060088800f07c2000d00888008040800037
:1009a4000d02070000c0eb00004f780080c0eb0090
:1009b4000e00e80001487800010037000000000044
:1009c40008c8bf00e14f500003003a0060408000b7
:1009d400010207000200370070408000fe0107009a
:1009e40030408000e10f50003d003a00014080009b
:1009f400104080000080500091408000810f500022
:100a04002b00360050168000680060000000e000f3
:100a140027003a0060408000804078000e80e800a3
:100a240001487800604080004800de008040780083
:100a340063004700014878007040800080407800df
:100a44006400470001487800704080004800de00e0
:100a54008040780065004700014878000a28ef00cc
:100a64000b00370050408000201188000000000077
:100a74001111800000102000008060000000e000e0
:100a8400fbff3a00504080000000e800504088001e
:100a940050408000e40f5000f2ff36000628ef00bb
:100aa4000428ef0060408000cb0107000c003700f1
:100ab4000140800010408000008050009140800080
:100ac400810f500006003600501680006800600058
:100ad4000000e000020032000628ef000428ef00c6
:100ae40010118000620060000000e000010032008c
:100af4002222a90010118000640060000000e000c0
:100b0400010032002242a900200480006800600035
:100b14000000e000a9ff3200902c80004700de00b6
:100b2400614060000004a200614060000080fb009e
:100b3400610060004700dd00912c80000170a1007d
:100b440001007000902c88008460a9009cff37008d
:100b54000400fa00000f78000e80e8000108780015
:100b64001e007800e10f500064003a000e80e80097
:100b7400100078008000eb009200200003002000a9
:100b8400820f5000838f58005b003e00006001001c
:100b94000900370010003700170037001e00370027
:100ba400250037002c003700330037003a003700a7
:100bb4004100370048003700aac5a800a2c5a80014
:100bc400aae5a80092c5a8009ae5a800a2e5a80095
:100bd4009ac5a90049003700aac5a900a2c5a80062
:100be400aae5a80092c5a9009ae5a900a2e5a90072
:100bf4009ac5a90041003700aac5a800a2c5a8004b
:100c0400aae5a90092c5a8009ae5a800a2e5a90052
:100c14009ac5a80039003700aac5a800a2c5a80033
:100c2400aae5a80092c5a8009ae5a900a2e5a90032
:100c34009ac5a80031003700aac5a900a2c5a8001a
:100c4400aae5a80092c5a9009ae5a900a2e5a80012
:100c54009ac5a80029003700aac5a800a2c5a90002
:100c6400aae5a80092c5a8009ae5a900a2e5a800f3
:100c74009ac5a80021003700aac5a800a2c5a900ea
:100c8400aae5a80092c5a8009ae5a800a2e5a800d4
:100c94009ac5a80019003700aac5a800a2c5a800d3
:100ca400aae5a80092c5a9009ae5a900a2e5a900b1
:100cb4009ac5a90011003700aac5a800a2c5a800ba
:100cc400aae5a80092c5a8009ae5a800a2e5a80094
:100cd4009ac5a80009003700aac5a800a2c5a800a3
:100ce400aae5a80092c5a8009ae5a900a2e5a80073
:100cf4009ac5a80001003700000000001e0078001b
:100d0400e20f500064003a000e80e8001000780002
:100d14008000eb009200200003002000820f5000ae
:100d2400838f58005b003e0000600100090037001b
:100d340010003700170037001e0037002500370069
:100d44002c003700330037003a00370041003700e9
:100d540048003700aa85a800a285a800aaa5a80073
:100d64009285a8009aa5a800a2a5a8009a85a90022
:100d740049003700aa85a900a285a800aaa5a80051
:100d84009285a9009aa5a900a2a5a9009a85a900ff
:100d940041003700aa85a800a285a800aaa5a90039
:100da4009285a8009aa5a800a2a5a9009a85a800e2
:100db40039003700aa85a800a285a800aaa5a80022
:100dc4009285a8009aa5a900a2a5a9009a85a800c1
:100dd40031003700aa85a900a285a800aaa5a80009
:100de4009285a9009aa5a900a2a5a8009a85a800a1
:100df40029003700aa85a800a285a900aaa5a800f1
:100e04009285a8009aa5a900a2a5a8009a85a80081
:100e140021003700aa85a800a285a900aaa5a800d8
:100e24009285a8009aa5a800a2a5a8009a85a80062
:100e340019003700aa85a800a285a800aaa5a800c1
:100e44009285a9009aa5a900a2a5a9009a85a9003e
:100e540011003700aa85a800a285a800aaa5a800a9
:100e64009285a8009aa5a800a2a5a8009a85a80022
:100e740009003700aa85a800a285a800aaa5a80091
:100e84009285a8009aa5a900a2a5a8009a85a80001
:100e940001003700000000001e007800e30f50003e
:100ea40064003a000e80e800100078008000eb0037
:100eb4009200200003002000820f5000838f58000e
:100ec4005b003e000060010009003700100037009d
:100ed400170037001e003700250037002c003700ac
:100ee400330037003a00370041003700480037002c
:100ef400aa05a800a205a800aa25a8009205a80092
:100f04009a25a800a225a8009a05a900490037003f
:100f1400aa05a900a205a800aa25a8009205a9006f
:100f24009a25a900a225a9009a05a9004100370025
:100f3400aa05a800a205a800aa25a9009205a80050
:100f44009a25a800a225a9009a05a800390037000f
:100f5400aa05a800a205a800aa25a8009205a80031
:100f64009a25a900a225a9009a05a80031003700f6
:100f7400aa05a900a205a800aa25a8009205a9000f
:100f84009a25a900a225a8009a05a80029003700df
:100f9400aa05a800a205a900aa25a8009205a800f0
:100fa4009a25a900a225a8009a05a80021003700c7
:100fb400aa05a800a205a900aa25a8009205a800d0
:100fc4009a25a800a225a8009a05a80019003700b0
:100fd400aa05a800a205a800aa25a8009205a900b0
:100fe4009a25a900a225a9009a05a9001100370095
:100ff400aa05a800a205a800aa25a8009205a80091
:101004009a25a800a225a8009a05a800090037007f
:10101400aa05a800a205a800aa25a8009205a80070
:101024009a25a900a225a8009a05a8000100370066
:10103400000000001e007800e40f500064003a0035
:101044000e80e800100078008000eb009200200081
:1010540003002000820f5000838f58005b003e0085
:101064000060010009003700100037001700370046
:101074001e003700250037002c00370033003700ee
:101084003a0037004100370048003700a9c5a800de
:10109400a1c5a800a9e5a80091c5a80099e5a800e4
:1010a400a1e5a80099c5a90049003700a9c5a90070
:1010b400a1c5a800a9e5a80091c5a90099e5a900c2
:1010c400a1e5a90099c5a90041003700a9c5a80058
:1010d400a1c5a800a9e5a90091c5a80099e5a800a3
:1010e400a1e5a90099c5a80039003700a9c5a80041
:1010f400a1c5a800a9e5a80091c5a80099e5a90083
:10110400a1e5a90099c5a80031003700a9c5a90027
:10111400a1c5a800a9e5a80091c5a90099e5a90061
:10112400a1e5a80099c5a80029003700a9c5a80011
:10113400a1c5a900a9e5a80091c5a80099e5a90041
:10114400a1e5a80099c5a80021003700a9c5a800f9
:10115400a1c5a900a9e5a80091c5a80099e5a80022
:10116400a1e5a80099c5a80019003700a9c5a800e1
:10117400a1c5a800a9e5a80091c5a90099e5a90001
:10118400a1e5a90099c5a90011003700a9c5a800c7
:10119400a1c5a800a9e5a80091c5a80099e5a800e3
:1011a400a1e5a80099c5a80009003700a9c5a800b1
:1011b400a1c5a800a9e5a80091c5a80099e5a900c2
:1011c400a1e5a80099c5a8000100370000000000af
:1011d4000080fa00000006000c00fa00e800470056
:1011e400800878006800470090007800803e200066
:1011f40000017800110009008280d8008000fd0001
:10120400e80047009100780000805000c300de0031
:10121400500c22000008b8004408de00000f7800db
:101224009e007800803e20000088b900000078000d
:10123400e800470091007800808050005107980032
:101244006800470010017800400620008001780003
:10125400110009000381d8008000fd00de00900029
:1012640000805000c200de00b04721000008b80032
:101274008100d1000e80e800010878009e0078000b
:10128400803e20000088b90000007800e800470094
:1012940091007800008150000e80e80090007800f2
:1012a400400620000088b900000078008001510049
:1012b4006800470010017800d0cc2c000010b80062
:1012c4004308de006a00b900000078000000510005
:1012d40080805100d0cc2c000008b800c308de0088
:1012e40064004700010878009e007800803e2000da
:1012f4000088b90000007800e800470091007800f9
:10130400008150000e80e800900078004006200024
:101314000088b90000007800000151006400470013
:10132400100078006a00b9000000780080005100c5
:1013340066004700010878009e0078001000200035
:1013440003fe07000e80e8009000780020002000d3
:10135400fffd070064004700900078003000200083
:10136400fbfd070066004700900078004000200065
:10137400f7fd07000080fa00000006000000fa00f4
:10138400313a8000f08f2f00008060000080a000c0
:10139400303a8800313a8000f0f32f00008060007a
:1013a400303a8800e244a900e2e4a900e704a90075
:1013b400e264a900e384a900eaa4a900e224a80045
:1013c400e2c4a800c842a900d182a900c8e2a800ca
:1013d400d1e2a900d902a800c862a800c982a90064
:1013e400c822a800c8c2a800cc42a900d582a9007e
:1013f400d5e2a900cd82a900ce42a800413a8000de
:1014040000fc2f0000806000403a88008660a9003c
:101414009660a8006520a80068a0a80062a0a800a3
:101424006ea0a80005e1a8002108800000032000a8
:1014340001007000200888000421a9000441a900cb
:1014440004c1a90011e1a80081088000f0fc2f006c
:10145400008060000050a000800888001021a900ce
:101464001fe1a800f1088000f0fc2f00008060005c
:101474000040a000f00888001e21a90094e0a80004
:101484009760a800212c800080ff2f00008060005e
:101494003000b300202c880085e5a800212c8000b2
:1014a40070fe2f0000806000202c880085a5a80015
:1014b40086a5a80086e5a9008685a800112c8000d1
:1014c4000003200001007000102c880083e5a800b0
:1014d400112c8000f07f2c0000806000102c88000c
:1014e400112c800080ff2f0000806000102c8800e9
:1014f40089c5a80089e5a8008a05a8008a25a8004e
:101504008a85a8008aa5a8008ac5a8008ae5a8003b
:101514008b05a8008b25a8008b45a8008b65a80027
:101524008de5a8008fc5a80041e4a80041a4a80047
:101534004184a9004164a9004104a900012280005a
:10154400c0ff2f00008060000010a000002288006f
:10155400cb82a80081e3a8008003a9008803a90026
:101564008943a9008923a800411c8000f0f32f00bf
:10157400008060000060a000401c88008823a9004f
:10158400411c800030ff2f00008060000020a0007c
:10159400401c8800113a8000f00b2000008160009c
:1015a4006004200071052000237420008049780025
:1015b40081497800824978002135800000fc2f00a1
:1015c400008060001001b30020358800713680006f
:1015d40000fc2f00008060003000b30070368800eb
:1015e400103a8000000178000260a000600420002e
:1015f4007105200023742000804978008149780017
:101604008249780000022000401188002062a8006e
:101614002002a9000111800090ff2f0000806000cb
:101624000011880021e2a80011118000f0f32f00be
:10163400008060000070a0001011880023a2a9009f
:1016440023e2a8002342a8009560a8000005a80092
:101654000345a80011288000f0ff230000806000eb
:10166400102888000385a90005e5a90010c0b3006f
:1016740004e5b7000505a80001e5a8000000000086
:1016840050288000620060000000e000fcff32008f
:10169400f128800000fe2f0000806000f028880000
:1016a4001fe5a900f1288000f0ff290000806000f8
:1016b40000d0a000f0288800e128800000fc2f0062
:1016c400008060000000a000e0288800e12880007d
:1016d400f00f2e0080806000005020000100700098
:1016e400e02888001dc5a8001da5a90001c3a90004
:1016f40001e3a8000118800000f82f0000806000ba
:101704000000a0000018880003c3a90003e3a80098
:101714001118800000f82f00008060006000b30002
:10172400101888000805a90095a0a80085a0a900a4
:101734001de5a80000c5a800000000005028800096
:10174400620060000000e000fcff32001dc5a9003b
:081754000080fa00000006000d
:020000040000fa
:10175c00180a0000000200008200000001000000d6
:10176c00000000000000000000000000000000006d
:10177c00000000000000000000000000000000005d
:10178c00000000000000000000000000000000004d
:10179c00000000000000000000000000000000003d
:101a0c0000000000000000001408000004020000a8
:101a1c0080000000000800001000000080000000a2
:101a2c001008000004000000820000007b0004008d
:081a3c000000000000000000a2
:020000040000fa
:020000040002f8
:04aff0003f0200001c
:020000040000fa
:020000040002f8
:04aff400807f00005a
:020000040000fa
:020000040002f8
:04aff8009f41000075
:020000040000fa
:020000040002f8
:04affc00bf39000059
:00000001FF
